{
  "abi": [
    {
      "inputs": [
        {
          "internalType": "contract IEntryPoint",
          "name": "_entryPoint",
          "type": "address"
        }
      ],
      "stateMutability": "nonpayable",
      "type": "constructor"
    },
    {
      "anonymous": false,
      "inputs": [
        {
          "indexed": true,
          "internalType": "address",
          "name": "oldValidator",
          "type": "address"
        },
        {
          "indexed": true,
          "internalType": "address",
          "name": "newValidator",
          "type": "address"
        }
      ],
      "name": "DefaultValidatorChanged",
      "type": "event"
    },
    {
      "anonymous": false,
      "inputs": [
        {
          "indexed": true,
          "internalType": "bytes4",
          "name": "selector",
          "type": "bytes4"
        },
        {
          "indexed": true,
          "internalType": "address",
          "name": "executor",
          "type": "address"
        },
        {
          "indexed": true,
          "internalType": "address",
          "name": "validator",
          "type": "address"
        }
      ],
      "name": "ExecutionChanged",
      "type": "event"
    },
    {
      "anonymous": false,
      "inputs": [
        {
          "indexed": true,
          "internalType": "address",
          "name": "newImplementation",
          "type": "address"
        }
      ],
      "name": "Upgraded",
      "type": "event"
    },
    {
      "inputs": [
        {
          "internalType": "bytes4",
          "name": "_disableFlag",
          "type": "bytes4"
        }
      ],
      "name": "disableMode",
      "outputs": [],
      "stateMutability": "nonpayable",
      "type": "function"
    },
    {
      "inputs": [],
      "name": "entryPoint",
      "outputs": [
        {
          "internalType": "contract IEntryPoint",
          "name": "",
          "type": "address"
        }
      ],
      "stateMutability": "view",
      "type": "function"
    },
    {
      "inputs": [],
      "name": "getDefaultValidator",
      "outputs": [
        {
          "internalType": "contract IKernelValidator",
          "name": "",
          "type": "address"
        }
      ],
      "stateMutability": "view",
      "type": "function"
    },
    {
      "inputs": [],
      "name": "getDisabledMode",
      "outputs": [
        {
          "internalType": "bytes4",
          "name": "",
          "type": "bytes4"
        }
      ],
      "stateMutability": "view",
      "type": "function"
    },
    {
      "inputs": [
        {
          "internalType": "bytes4",
          "name": "_selector",
          "type": "bytes4"
        }
      ],
      "name": "getExecution",
      "outputs": [
        {
          "components": [
            {
              "internalType": "uint48",
              "name": "validUntil",
              "type": "uint48"
            },
            {
              "internalType": "uint48",
              "name": "validAfter",
              "type": "uint48"
            },
            {
              "internalType": "address",
              "name": "executor",
              "type": "address"
            },
            {
              "internalType": "contract IKernelValidator",
              "name": "validator",
              "type": "address"
            }
          ],
          "internalType": "struct ExecutionDetail",
          "name": "",
          "type": "tuple"
        }
      ],
      "stateMutability": "view",
      "type": "function"
    },
    {
      "inputs": [],
      "name": "getLastDisabledTime",
      "outputs": [
        {
          "internalType": "uint48",
          "name": "",
          "type": "uint48"
        }
      ],
      "stateMutability": "view",
      "type": "function"
    },
    {
      "inputs": [
        {
          "internalType": "uint192",
          "name": "key",
          "type": "uint192"
        }
      ],
      "name": "getNonce",
      "outputs": [
        {
          "internalType": "uint256",
          "name": "",
          "type": "uint256"
        }
      ],
      "stateMutability": "view",
      "type": "function"
    },
    {
      "inputs": [],
      "name": "getNonce",
      "outputs": [
        {
          "internalType": "uint256",
          "name": "",
          "type": "uint256"
        }
      ],
      "stateMutability": "view",
      "type": "function"
    },
    {
      "inputs": [
        {
          "internalType": "contract IKernelValidator",
          "name": "_defaultValidator",
          "type": "address"
        },
        {
          "internalType": "bytes",
          "name": "_data",
          "type": "bytes"
        }
      ],
      "name": "initialize",
      "outputs": [],
      "stateMutability": "nonpayable",
      "type": "function"
    },
    {
      "inputs": [
        {
          "internalType": "contract IKernelValidator",
          "name": "_defaultValidator",
          "type": "address"
        },
        {
          "internalType": "bytes",
          "name": "_data",
          "type": "bytes"
        }
      ],
      "name": "setDefaultValidator",
      "outputs": [],
      "stateMutability": "nonpayable",
      "type": "function"
    },
    {
      "inputs": [
        {
          "internalType": "bytes4",
          "name": "_selector",
          "type": "bytes4"
        },
        {
          "internalType": "address",
          "name": "_executor",
          "type": "address"
        },
        {
          "internalType": "contract IKernelValidator",
          "name": "_validator",
          "type": "address"
        },
        {
          "internalType": "uint48",
          "name": "_validUntil",
          "type": "uint48"
        },
        {
          "internalType": "uint48",
          "name": "_validAfter",
          "type": "uint48"
        },
        {
          "internalType": "bytes",
          "name": "_enableData",
          "type": "bytes"
        }
      ],
      "name": "setExecution",
      "outputs": [],
      "stateMutability": "nonpayable",
      "type": "function"
    },
    {
      "inputs": [
        {
          "internalType": "address",
          "name": "_newImplementation",
          "type": "address"
        }
      ],
      "name": "upgradeTo",
      "outputs": [],
      "stateMutability": "nonpayable",
      "type": "function"
    }
  ],
  "bytecode": {
    "object": "0x60a060405234801561001057600080fd5b50604051610e09380380610e0983398101604081905261002f916100a7565b6001600160a01b0381166080526001610046610073565b600101600a6101000a8154816001600160a01b0302191690836001600160a01b03160217905550506100f8565b6000806100a160017f439ffe7df606b78489639bc0b827913bd09e1246fa6802968a5b3694c53e0dd96100d7565b92915050565b6000602082840312156100b957600080fd5b81516001600160a01b03811681146100d057600080fd5b9392505050565b818103818111156100a157634e487b7160e01b600052601160045260246000fd5b608051610ccc61013d600039600081816101df0152818161025d015281816104470152818161051101528181610632015281816107b6015261092d0152610ccc6000f3fe608060405234801561001057600080fd5b50600436106100b45760003560e01c806357b750471161007157806357b750471461019a57806388e7fd06146101bb578063b0d691fe146101da578063d087d28814610201578063d1f5789414610209578063d54162211461021c57600080fd5b80630b3dc354146100b957806329f8b174146100de5780633659cfe6146100f35780633e1b08121461010657806351166ba01461012757806355b14f5014610187575b600080fd5b6100c161022f565b6040516001600160a01b0390911681526020015b60405180910390f35b6100f16100ec366004610a88565b610252565b005b6100f1610101366004610b23565b61043c565b610119610114366004610b47565b6104ea565b6040519081526020016100d5565b61013a610135366004610b70565b61058a565b60408051825165ffffffffffff908116825260208085015190911690820152828201516001600160a01b0390811692820192909252606092830151909116918101919091526080016100d5565b6100f1610195366004610b8b565b610627565b6101a261075e565b6040516001600160e01b031990911681526020016100d5565b6101c3610774565b60405165ffffffffffff90911681526020016100d5565b6100c17f000000000000000000000000000000000000000000000000000000000000000081565b610119610797565b6100f1610217366004610b8b565b61082e565b6100f161022a366004610b70565b610922565b60006102396109c6565b60010154600160501b90046001600160a01b0316919050565b336001600160a01b037f000000000000000000000000000000000000000000000000000000000000000016148061028857503330145b6102ad5760405162461bcd60e51b81526004016102a490610be0565b60405180910390fd5b60405180608001604052808565ffffffffffff1681526020018465ffffffffffff168152602001876001600160a01b03168152602001866001600160a01b03168152506102f86109c6565b6001600160e01b031989166000908152600291909101602090815260409182902083518154928501518585015165ffffffffffff9283166bffffffffffffffffffffffff199095169490941766010000000000009290911691909102176bffffffffffffffffffffffff16600160601b6001600160a01b0393841602178155606090930151600190930180546001600160a01b031916938216939093179092555163064acaab60e11b815290861690630c959556906103bd9085908590600401610c2d565b600060405180830381600087803b1580156103d757600080fd5b505af11580156103eb573d6000803e3d6000fd5b50506040516001600160a01b038089169350891691506001600160e01b03198a16907fed03d2572564284398470d3f266a693e29ddfff3eba45fc06c5e91013d32135390600090a450505050505050565b336001600160a01b037f000000000000000000000000000000000000000000000000000000000000000016148061047257503330145b61048e5760405162461bcd60e51b81526004016102a490610be0565b7f360894a13ba1a3210667c828492db98dca3e2076cc3735a920a3ca505d382bbc8181556040516001600160a01b038316907fbc7cd75a20ee27fd9adebab32041f755214dbc6bffa90cc0225b39da2e5c2d3b90600090a25050565b604051631aab3f0d60e11b81523060048201526001600160c01b03821660248201526000907f00000000000000000000000000000000000000000000000000000000000000006001600160a01b0316906335567e1a90604401602060405180830381865afa158015610560573d6000803e3d6000fd5b505050506040513d601f19601f820116820180604052508101906105849190610c5c565b92915050565b6040805160808101825260008082526020820181905291810182905260608101919091526105b66109c6565b6001600160e01b0319909216600090815260029290920160209081526040928390208351608081018552815465ffffffffffff80821683526601000000000000820416938201939093526001600160a01b03600160601b909304831694810194909452600101541660608301525090565b336001600160a01b037f000000000000000000000000000000000000000000000000000000000000000016148061065d57503330145b6106795760405162461bcd60e51b81526004016102a490610be0565b60006106836109c6565b60010154600160501b90046001600160a01b03169050836106a26109c6565b6001018054600160501b600160f01b031916600160501b6001600160a01b0393841602179055604051858216918316907fa35f5cdc5fbabb614b4cd5064ce5543f43dc8fab0e4da41255230eb8aba2531c90600090a360405163064acaab60e11b81526001600160a01b03851690630c959556906107269086908690600401610c2d565b600060405180830381600087803b15801561074057600080fd5b505af1158015610754573d6000803e3d6000fd5b5050505050505050565b60006107686109c6565b6001015460e01b919050565b600061077e6109c6565b60010154640100000000900465ffffffffffff16919050565b604051631aab3f0d60e11b8152306004820152600060248201819052907f00000000000000000000000000000000000000000000000000000000000000006001600160a01b0316906335567e1a90604401602060405180830381865afa158015610805573d6000803e3d6000fd5b505050506040513d601f19601f820116820180604052508101906108299190610c5c565b905090565b60006108386109c6565b6001810154909150600160501b90046001600160a01b03161561089d5760405162461bcd60e51b815260206004820152601c60248201527f6163636f756e743a20616c726561647920696e697469616c697a65640000000060448201526064016102a4565b600181018054600160501b600160f01b031916600160501b6001600160a01b038716908102919091179091556040516000907fa35f5cdc5fbabb614b4cd5064ce5543f43dc8fab0e4da41255230eb8aba2531c908290a360405163064acaab60e11b81526001600160a01b03851690630c959556906107269086908690600401610c2d565b336001600160a01b037f000000000000000000000000000000000000000000000000000000000000000016148061095857503330145b6109745760405162461bcd60e51b81526004016102a490610be0565b8061097d6109c6565b600101805463ffffffff191660e09290921c9190911790554261099e6109c6565b60010160046101000a81548165ffffffffffff021916908365ffffffffffff16021790555050565b60008061058460017f439ffe7df606b78489639bc0b827913bd09e1246fa6802968a5b3694c53e0dd9610c75565b80356001600160e01b031981168114610a0c57600080fd5b919050565b6001600160a01b0381168114610a2657600080fd5b50565b803565ffffffffffff81168114610a0c57600080fd5b60008083601f840112610a5157600080fd5b50813567ffffffffffffffff811115610a6957600080fd5b602083019150836020828501011115610a8157600080fd5b9250929050565b600080600080600080600060c0888a031215610aa357600080fd5b610aac886109f4565b96506020880135610abc81610a11565b95506040880135610acc81610a11565b9450610ada60608901610a29565b9350610ae860808901610a29565b925060a088013567ffffffffffffffff811115610b0457600080fd5b610b108a828b01610a3f565b989b979a50959850939692959293505050565b600060208284031215610b3557600080fd5b8135610b4081610a11565b9392505050565b600060208284031215610b5957600080fd5b81356001600160c01b0381168114610b4057600080fd5b600060208284031215610b8257600080fd5b610b40826109f4565b600080600060408486031215610ba057600080fd5b8335610bab81610a11565b9250602084013567ffffffffffffffff811115610bc757600080fd5b610bd386828701610a3f565b9497909650939450505050565b6020808252602d908201527f6163636f756e743a206e6f742066726f6d20656e747279706f696e74206f722060408201526c37bbb732b91037b91039b2b63360991b606082015260800190565b60208152816020820152818360408301376000818301604090810191909152601f909201601f19160101919050565b600060208284031215610c6e57600080fd5b5051919050565b8181038181111561058457634e487b7160e01b600052601160045260246000fdfea264697066735822122094980f76859f2c53adeab271faf1b2ec99c7f877f20a9cb308cd0fed8ca158c064736f6c63430008130033",
    "linkReferences": {}
  },
  "methodIdentifiers": {
    "disableMode(bytes4)": "d5416221",
    "entryPoint()": "b0d691fe",
    "getDefaultValidator()": "0b3dc354",
    "getDisabledMode()": "57b75047",
    "getExecution(bytes4)": "51166ba0",
    "getLastDisabledTime()": "88e7fd06",
    "getNonce()": "d087d288",
    "getNonce(uint192)": "3e1b0812",
    "initialize(address,bytes)": "d1f57894",
    "setDefaultValidator(address,bytes)": "55b14f50",
    "setExecution(bytes4,address,address,uint48,uint48,bytes)": "29f8b174",
    "upgradeTo(address)": "3659cfe6"
  },
  "id": 47
}