{
  "_format": "hh-sol-artifact-1",
  "contractName": "KernelStorage",
  "sourceName": "src/abstract/KernelStorage.sol",
  "abi": [
    {
      "inputs": [
        {
          "internalType": "contract IEntryPoint",
          "name": "_entryPoint",
          "type": "address"
        }
      ],
      "stateMutability": "nonpayable",
      "type": "constructor"
    },
    {
      "anonymous": false,
      "inputs": [
        {
          "indexed": true,
          "internalType": "address",
          "name": "newImplementation",
          "type": "address"
        }
      ],
      "name": "Upgraded",
      "type": "event"
    },
    {
      "inputs": [],
      "name": "entryPoint",
      "outputs": [
        {
          "internalType": "contract IEntryPoint",
          "name": "",
          "type": "address"
        }
      ],
      "stateMutability": "view",
      "type": "function"
    },
    {
      "inputs": [
        {
          "internalType": "uint192",
          "name": "key",
          "type": "uint192"
        }
      ],
      "name": "getNonce",
      "outputs": [
        {
          "internalType": "uint256",
          "name": "",
          "type": "uint256"
        }
      ],
      "stateMutability": "view",
      "type": "function"
    },
    {
      "inputs": [],
      "name": "getNonce",
      "outputs": [
        {
          "internalType": "uint256",
          "name": "",
          "type": "uint256"
        }
      ],
      "stateMutability": "view",
      "type": "function"
    },
    {
      "inputs": [],
      "name": "getOwner",
      "outputs": [
        {
          "internalType": "address",
          "name": "",
          "type": "address"
        }
      ],
      "stateMutability": "view",
      "type": "function"
    },
    {
      "inputs": [
        {
          "internalType": "address",
          "name": "_newOwner",
          "type": "address"
        }
      ],
      "name": "transferOwnership",
      "outputs": [],
      "stateMutability": "nonpayable",
      "type": "function"
    },
    {
      "inputs": [
        {
          "internalType": "address",
          "name": "_newImplementation",
          "type": "address"
        }
      ],
      "name": "upgradeTo",
      "outputs": [],
      "stateMutability": "nonpayable",
      "type": "function"
    }
  ],
  "bytecode": "0x60a06040523480156200001157600080fd5b5060405162000c8938038062000c89833981810160405281019062000037919062000184565b8073ffffffffffffffffffffffffffffffffffffffff1660808173ffffffffffffffffffffffffffffffffffffffff168152505060016200007d620000c560201b60201c565b60000160006101000a81548173ffffffffffffffffffffffffffffffffffffffff021916908373ffffffffffffffffffffffffffffffffffffffff160217905550506200022a565b60008060017f439ffe7df606b78489639bc0b827913bd09e1246fa6802968a5b3694c53e0dd960001c620000fa9190620001ef565b60001b90508091505090565b600080fd5b600073ffffffffffffffffffffffffffffffffffffffff82169050919050565b600062000138826200010b565b9050919050565b60006200014c826200012b565b9050919050565b6200015e816200013f565b81146200016a57600080fd5b50565b6000815190506200017e8162000153565b92915050565b6000602082840312156200019d576200019c62000106565b5b6000620001ad848285016200016d565b91505092915050565b6000819050919050565b7f4e487b7100000000000000000000000000000000000000000000000000000000600052601160045260246000fd5b6000620001fc82620001b6565b91506200020983620001b6565b9250828203905081811115620002245762000223620001c0565b5b92915050565b608051610a27620002626000396000818161012b015281816102c40152818161039a015281816103c001526104620152610a276000f3fe608060405234801561001057600080fd5b50600436106100625760003560e01c80633659cfe6146100675780633e1b081214610083578063893d20e8146100b3578063b0d691fe146100d1578063d087d288146100ef578063f2fde38b1461010d575b600080fd5b610081600480360381019061007c9190610674565b610129565b005b61009d600480360381019061009891906106f1565b6102c0565b6040516100aa9190610737565b60405180910390f35b6100bb610365565b6040516100c89190610761565b60405180910390f35b6100d9610398565b6040516100e691906107db565b60405180910390f35b6100f76103bc565b6040516101049190610737565b60405180910390f35b61012760048036038101906101229190610674565b610460565b005b7f000000000000000000000000000000000000000000000000000000000000000073ffffffffffffffffffffffffffffffffffffffff163373ffffffffffffffffffffffffffffffffffffffff1614806101d957506101866105d2565b60000160009054906101000a900473ffffffffffffffffffffffffffffffffffffffff1673ffffffffffffffffffffffffffffffffffffffff163373ffffffffffffffffffffffffffffffffffffffff16145b8061020f57503073ffffffffffffffffffffffffffffffffffffffff163373ffffffffffffffffffffffffffffffffffffffff16145b61024e576040517f08c379a000000000000000000000000000000000000000000000000000000000815260040161024590610879565b60405180910390fd5b60007f360894a13ba1a3210667c828492db98dca3e2076cc3735a920a3ca505d382bbc60001b90508181558173ffffffffffffffffffffffffffffffffffffffff167fbc7cd75a20ee27fd9adebab32041f755214dbc6bffa90cc0225b39da2e5c2d3b60405160405180910390a25050565b60007f000000000000000000000000000000000000000000000000000000000000000073ffffffffffffffffffffffffffffffffffffffff166335567e1a30846040518363ffffffff1660e01b815260040161031d9291906108a8565b602060405180830381865afa15801561033a573d6000803e3d6000fd5b505050506040513d601f19601f8201168201806040525081019061035e91906108fd565b9050919050565b600061036f6105d2565b60000160009054906101000a900473ffffffffffffffffffffffffffffffffffffffff16905090565b7f000000000000000000000000000000000000000000000000000000000000000081565b60007f000000000000000000000000000000000000000000000000000000000000000073ffffffffffffffffffffffffffffffffffffffff166335567e1a3060006040518363ffffffff1660e01b815260040161041a929190610965565b602060405180830381865afa158015610437573d6000803e3d6000fd5b505050506040513d601f19601f8201168201806040525081019061045b91906108fd565b905090565b7f000000000000000000000000000000000000000000000000000000000000000073ffffffffffffffffffffffffffffffffffffffff163373ffffffffffffffffffffffffffffffffffffffff16148061051057506104bd6105d2565b60000160009054906101000a900473ffffffffffffffffffffffffffffffffffffffff1673ffffffffffffffffffffffffffffffffffffffff163373ffffffffffffffffffffffffffffffffffffffff16145b8061054657503073ffffffffffffffffffffffffffffffffffffffff163373ffffffffffffffffffffffffffffffffffffffff16145b610585576040517f08c379a000000000000000000000000000000000000000000000000000000000815260040161057c90610879565b60405180910390fd5b8061058e6105d2565b60000160006101000a81548173ffffffffffffffffffffffffffffffffffffffff021916908373ffffffffffffffffffffffffffffffffffffffff16021790555050565b60008060017f439ffe7df606b78489639bc0b827913bd09e1246fa6802968a5b3694c53e0dd960001c61060591906109bd565b60001b90508091505090565b600080fd5b600073ffffffffffffffffffffffffffffffffffffffff82169050919050565b600061064182610616565b9050919050565b61065181610636565b811461065c57600080fd5b50565b60008135905061066e81610648565b92915050565b60006020828403121561068a57610689610611565b5b60006106988482850161065f565b91505092915050565b600077ffffffffffffffffffffffffffffffffffffffffffffffff82169050919050565b6106ce816106a1565b81146106d957600080fd5b50565b6000813590506106eb816106c5565b92915050565b60006020828403121561070757610706610611565b5b6000610715848285016106dc565b91505092915050565b6000819050919050565b6107318161071e565b82525050565b600060208201905061074c6000830184610728565b92915050565b61075b81610636565b82525050565b60006020820190506107766000830184610752565b92915050565b6000819050919050565b60006107a161079c61079784610616565b61077c565b610616565b9050919050565b60006107b382610786565b9050919050565b60006107c5826107a8565b9050919050565b6107d5816107ba565b82525050565b60006020820190506107f060008301846107cc565b92915050565b600082825260208201905092915050565b7f6163636f756e743a206e6f742066726f6d20656e747279706f696e74206f722060008201527f6f776e6572206f722073656c6600000000000000000000000000000000000000602082015250565b6000610863602d836107f6565b915061086e82610807565b604082019050919050565b6000602082019050818103600083015261089281610856565b9050919050565b6108a2816106a1565b82525050565b60006040820190506108bd6000830185610752565b6108ca6020830184610899565b9392505050565b6108da8161071e565b81146108e557600080fd5b50565b6000815190506108f7816108d1565b92915050565b60006020828403121561091357610912610611565b5b6000610921848285016108e8565b91505092915050565b6000819050919050565b600061094f61094a6109458461092a565b61077c565b6106a1565b9050919050565b61095f81610934565b82525050565b600060408201905061097a6000830185610752565b6109876020830184610956565b9392505050565b7f4e487b7100000000000000000000000000000000000000000000000000000000600052601160045260246000fd5b60006109c88261071e565b91506109d38361071e565b92508282039050818111156109eb576109ea61098e565b5b9291505056fea26469706673582212201994b1e6debe795bd0c78689bb769b1d59fa017aae43c968e877d86d90ff258164736f6c63430008120033",
  "linkReferences": {},
  "deployedLinkReferences": {}
}