{
  "abi": [
    {
      "inputs": [
        {
          "internalType": "bytes",
          "name": "",
          "type": "bytes"
        }
      ],
      "name": "disable",
      "outputs": [],
      "stateMutability": "nonpayable",
      "type": "function"
    },
    {
      "inputs": [
        {
          "internalType": "bytes",
          "name": "enableData",
          "type": "bytes"
        }
      ],
      "name": "enable",
      "outputs": [],
      "stateMutability": "nonpayable",
      "type": "function"
    },
    {
      "inputs": [
        {
          "internalType": "address",
          "name": "",
          "type": "address"
        }
      ],
      "name": "killSwitchValidatorStorage",
      "outputs": [
        {
          "internalType": "address",
          "name": "owner",
          "type": "address"
        },
        {
          "internalType": "address",
          "name": "guardian",
          "type": "address"
        },
        {
          "internalType": "uint48",
          "name": "pausedUntil",
          "type": "uint48"
        }
      ],
      "stateMutability": "view",
      "type": "function"
    },
    {
      "inputs": [
        {
          "internalType": "bytes32",
          "name": "hash",
          "type": "bytes32"
        },
        {
          "internalType": "bytes",
          "name": "signature",
          "type": "bytes"
        }
      ],
      "name": "validateSignature",
      "outputs": [
        {
          "internalType": "uint256",
          "name": "",
          "type": "uint256"
        }
      ],
      "stateMutability": "view",
      "type": "function"
    },
    {
      "inputs": [
        {
          "components": [
            {
              "internalType": "address",
              "name": "sender",
              "type": "address"
            },
            {
              "internalType": "uint256",
              "name": "nonce",
              "type": "uint256"
            },
            {
              "internalType": "bytes",
              "name": "initCode",
              "type": "bytes"
            },
            {
              "internalType": "bytes",
              "name": "callData",
              "type": "bytes"
            },
            {
              "internalType": "uint256",
              "name": "callGasLimit",
              "type": "uint256"
            },
            {
              "internalType": "uint256",
              "name": "verificationGasLimit",
              "type": "uint256"
            },
            {
              "internalType": "uint256",
              "name": "preVerificationGas",
              "type": "uint256"
            },
            {
              "internalType": "uint256",
              "name": "maxFeePerGas",
              "type": "uint256"
            },
            {
              "internalType": "uint256",
              "name": "maxPriorityFeePerGas",
              "type": "uint256"
            },
            {
              "internalType": "bytes",
              "name": "paymasterAndData",
              "type": "bytes"
            },
            {
              "internalType": "bytes",
              "name": "signature",
              "type": "bytes"
            }
          ],
          "internalType": "struct UserOperation",
          "name": "_userOp",
          "type": "tuple"
        },
        {
          "internalType": "bytes32",
          "name": "_userOpHash",
          "type": "bytes32"
        },
        {
          "internalType": "uint256",
          "name": "",
          "type": "uint256"
        }
      ],
      "name": "validateUserOp",
      "outputs": [
        {
          "internalType": "uint256",
          "name": "",
          "type": "uint256"
        }
      ],
      "stateMutability": "nonpayable",
      "type": "function"
    }
  ],
  "bytecode": {
    "object": "0x608060405234801561001057600080fd5b50610b34806100206000396000f3fe608060405234801561001057600080fd5b50600436106100575760003560e01c80630c9595561461005c578063333daf92146100715780633a871cdd146100975780638fc925aa146100aa578063dd7f49aa146100ea575b600080fd5b61006f61006a3660046108db565b61015d565b005b61008461007f36600461091d565b6101e0565b6040519081526020015b60405180910390f35b6100846100a5366004610969565b61026e565b61006f6100b83660046108db565b505033600090815260208190526040902080546001600160a01b031916815560010180546001600160d01b0319169055565b61012f6100f83660046109bd565b600060208190529081526040902080546001909101546001600160a01b0391821691811690600160a01b900465ffffffffffff1683565b604080516001600160a01b03948516815293909216602084015265ffffffffffff169082015260600161008e565b61016b6014600083856109e6565b61017491610a10565b33600090815260208190526040902080546001600160a01b03191660609290921c9190911790556101a96028601483856109e6565b6101b291610a10565b33600090815260208190526040902060010180546001600160a01b03191660609290921c9190911790555050565b336000908152602081815260408083208151601f860184900484028101840190925284825291610263916102319188919088908890819084018382808284376000920191909152506105e792505050565b825460018401546001600160a01b03928316929091169190911490600090600160a01b900465ffffffffffff1661060b565b9150505b9392505050565b600080368180808061028360208b018b6109bd565b6001600160a01b03168152602081019190915260400160002090506102ac610140890189610a45565b9050605b036104295763d541622160e01b6102ca60608a018a610a45565b6102d9916004916000916109e6565b6102e291610a8c565b6001600160e01b031916036102f657600080fd5b60018101546001600160a01b0316935060006103166101408a018a610a45565b610325916006916000916109e6565b61032e91610aba565b600183015460d09190911c9150600160a01b900465ffffffffffff1681116103ae5760405162461bcd60e51b815260206004820152602860248201527f4b696c6c53776974636856616c696461746f723a20696e76616c6964207061756044820152671cd959155b9d1a5b60c21b60648201526084015b60405180910390fd5b806000806103bf60208d018d6109bd565b6001600160a01b031681526020810191909152604001600020600101805465ffffffffffff92909216600160a01b0265ffffffffffff60a01b199092169190911790556104106101408a018a610a45565b61041f916047916006916109e6565b935093505061046b565b60008061043960208b018b6109bd565b6001600160a01b039081168252602082019290925260400160002054169350610466610140890189610a45565b925092505b6104ab8784848080601f0160208091040260200160405190810160405280939291908181526020018383808284376000920191909152506105e792505050565b6001600160a01b0316846001600160a01b0316036104f0576104e56000808360010160149054906101000a900465ffffffffffff1661060b565b945050505050610267565b6000610549886040517f19457468657265756d205369676e6564204d6573736167653a0a3332000000006020820152603c8101829052600090605c01604051602081830303815290604052805190602001209050919050565b9050600061058d8286868080601f0160208091040260200160405190810160405280939291908181526020018383808284376000920191909152506105e792505050565b9050806001600160a01b0316866001600160a01b0316146105b75760019650505050505050610267565b6105d96000808560010160149054906101000a900465ffffffffffff1661060b565b9a9950505050505050505050565b60008060006105f68585610643565b9150915061060381610688565b509392505050565b600060d08265ffffffffffff16901b60a08465ffffffffffff16901b85610633576000610636565b60015b60ff161717949350505050565b60008082516041036106795760208301516040840151606085015160001a61066d878285856107d5565b94509450505050610681565b506000905060025b9250929050565b600081600481111561069c5761069c610ae8565b036106a45750565b60018160048111156106b8576106b8610ae8565b036107055760405162461bcd60e51b815260206004820152601860248201527f45434453413a20696e76616c6964207369676e6174757265000000000000000060448201526064016103a5565b600281600481111561071957610719610ae8565b036107665760405162461bcd60e51b815260206004820152601f60248201527f45434453413a20696e76616c6964207369676e6174757265206c656e6774680060448201526064016103a5565b600381600481111561077a5761077a610ae8565b036107d25760405162461bcd60e51b815260206004820152602260248201527f45434453413a20696e76616c6964207369676e6174757265202773272076616c604482015261756560f01b60648201526084016103a5565b50565b6000807f7fffffffffffffffffffffffffffffff5d576e7357a4501ddfe92f46681b20a083111561080c5750600090506003610890565b6040805160008082526020820180845289905260ff881692820192909252606081018690526080810185905260019060a0016020604051602081039080840390855afa158015610860573d6000803e3d6000fd5b5050604051601f1901519150506001600160a01b03811661088957600060019250925050610890565b9150600090505b94509492505050565b60008083601f8401126108ab57600080fd5b50813567ffffffffffffffff8111156108c357600080fd5b60208301915083602082850101111561068157600080fd5b600080602083850312156108ee57600080fd5b823567ffffffffffffffff81111561090557600080fd5b61091185828601610899565b90969095509350505050565b60008060006040848603121561093257600080fd5b83359250602084013567ffffffffffffffff81111561095057600080fd5b61095c86828701610899565b9497909650939450505050565b60008060006060848603121561097e57600080fd5b833567ffffffffffffffff81111561099557600080fd5b840161016081870312156109a857600080fd5b95602085013595506040909401359392505050565b6000602082840312156109cf57600080fd5b81356001600160a01b038116811461026757600080fd5b600080858511156109f657600080fd5b83861115610a0357600080fd5b5050820193919092039150565b6bffffffffffffffffffffffff198135818116916014851015610a3d5780818660140360031b1b83161692505b505092915050565b6000808335601e19843603018112610a5c57600080fd5b83018035915067ffffffffffffffff821115610a7757600080fd5b60200191503681900382131561068157600080fd5b6001600160e01b03198135818116916004851015610a3d5760049490940360031b84901b1690921692915050565b6001600160d01b03198135818116916006851015610a3d5760069490940360031b84901b1690921692915050565b634e487b7160e01b600052602160045260246000fdfea26469706673582212208d3bad30cc6bb449efccdce7c409e125f52bc09fd30ddb8d4a579a2fc48a628364736f6c63430008130033",
    "linkReferences": {}
  },
  "methodIdentifiers": {
    "disable(bytes)": "8fc925aa",
    "enable(bytes)": "0c959556",
    "killSwitchValidatorStorage(address)": "dd7f49aa",
    "validateSignature(bytes32,bytes)": "333daf92",
    "validateUserOp((address,uint256,bytes,bytes,uint256,uint256,uint256,uint256,uint256,bytes,bytes),bytes32,uint256)": "3a871cdd"
  },
  "id": 61
}