{
  "abi": [
    {
      "anonymous": false,
      "inputs": [
        {
          "indexed": true,
          "internalType": "address",
          "name": "kernel",
          "type": "address"
        },
        {
          "indexed": true,
          "internalType": "address",
          "name": "oldOwner",
          "type": "address"
        },
        {
          "indexed": true,
          "internalType": "address",
          "name": "newOwner",
          "type": "address"
        }
      ],
      "name": "OwnerChanged",
      "type": "event"
    },
    {
      "inputs": [
        {
          "internalType": "bytes",
          "name": "",
          "type": "bytes"
        }
      ],
      "name": "disable",
      "outputs": [],
      "stateMutability": "nonpayable",
      "type": "function"
    },
    {
      "inputs": [
        {
          "internalType": "address",
          "name": "",
          "type": "address"
        }
      ],
      "name": "ecdsaValidatorStorage",
      "outputs": [
        {
          "internalType": "address",
          "name": "owner",
          "type": "address"
        }
      ],
      "stateMutability": "view",
      "type": "function"
    },
    {
      "inputs": [
        {
          "internalType": "bytes",
          "name": "_data",
          "type": "bytes"
        }
      ],
      "name": "enable",
      "outputs": [],
      "stateMutability": "nonpayable",
      "type": "function"
    },
    {
      "inputs": [
        {
          "internalType": "bytes32",
          "name": "hash",
          "type": "bytes32"
        },
        {
          "internalType": "bytes",
          "name": "signature",
          "type": "bytes"
        }
      ],
      "name": "validateSignature",
      "outputs": [
        {
          "internalType": "uint256",
          "name": "",
          "type": "uint256"
        }
      ],
      "stateMutability": "view",
      "type": "function"
    },
    {
      "inputs": [
        {
          "components": [
            {
              "internalType": "address",
              "name": "sender",
              "type": "address"
            },
            {
              "internalType": "uint256",
              "name": "nonce",
              "type": "uint256"
            },
            {
              "internalType": "bytes",
              "name": "initCode",
              "type": "bytes"
            },
            {
              "internalType": "bytes",
              "name": "callData",
              "type": "bytes"
            },
            {
              "internalType": "uint256",
              "name": "callGasLimit",
              "type": "uint256"
            },
            {
              "internalType": "uint256",
              "name": "verificationGasLimit",
              "type": "uint256"
            },
            {
              "internalType": "uint256",
              "name": "preVerificationGas",
              "type": "uint256"
            },
            {
              "internalType": "uint256",
              "name": "maxFeePerGas",
              "type": "uint256"
            },
            {
              "internalType": "uint256",
              "name": "maxPriorityFeePerGas",
              "type": "uint256"
            },
            {
              "internalType": "bytes",
              "name": "paymasterAndData",
              "type": "bytes"
            },
            {
              "internalType": "bytes",
              "name": "signature",
              "type": "bytes"
            }
          ],
          "internalType": "struct UserOperation",
          "name": "_userOp",
          "type": "tuple"
        },
        {
          "internalType": "bytes32",
          "name": "_userOpHash",
          "type": "bytes32"
        },
        {
          "internalType": "uint256",
          "name": "",
          "type": "uint256"
        }
      ],
      "name": "validateUserOp",
      "outputs": [
        {
          "internalType": "uint256",
          "name": "validationData",
          "type": "uint256"
        }
      ],
      "stateMutability": "view",
      "type": "function"
    }
  ],
  "bytecode": {
    "object": "0x608060405234801561001057600080fd5b5061081d806100206000396000f3fe608060405234801561001057600080fd5b50600436106100575760003560e01c80630c9595561461005c57806320709efc14610071578063333daf92146100b75780633a871cdd146100d85780638fc925aa146100eb575b600080fd5b61006f61006a366004610620565b61011a565b005b61009a61007f366004610662565b6000602081905290815260409020546001600160a01b031681565b6040516001600160a01b0390911681526020015b60405180910390f35b6100ca6100c536600461068b565b61019a565b6040519081526020016100ae565b6100ca6100e63660046106d7565b610220565b61006f6100f9366004610620565b505033600090815260208190526040902080546001600160a01b0319169055565b6000610129601482848661072b565b61013291610755565b3360008181526020819052604080822080546001600160a01b0319811660609690961c95861790915590519394506001600160a01b0316928492849290917f381c0d11398486654573703c51ee8210ce9461764d133f9f0e53b6a5397053319190a450505050565b33600090815260208181526040808320548151601f86018490048402810184019092528482526001600160a01b0316916101f0918791879087908190840183828082843760009201919091525061035f92505050565b6001600160a01b0316816001600160a01b03161461020f576001610212565b60005b60ff169150505b9392505050565b60008080806102326020880188610662565b6001600160a01b03908116825260208201929092526040016000205416905061029d8461026361014088018861078a565b8080601f01602080910402602001604051908101604052809392919081815260200183838082843760009201919091525061035f92505050565b6001600160a01b0316816001600160a01b0316036102bf576000915050610219565b6000610318856040517f19457468657265756d205369676e6564204d6573736167653a0a3332000000006020820152603c8101829052600090605c01604051602081830303815290604052805190602001209050919050565b9050600061032e826102636101408a018a61078a565b9050806001600160a01b0316836001600160a01b0316146103555760019350505050610219565b5050509392505050565b600080600061036e8585610383565b9150915061037b816103c8565b509392505050565b60008082516041036103b95760208301516040840151606085015160001a6103ad8782858561051a565b945094505050506103c1565b506000905060025b9250929050565b60008160048111156103dc576103dc6107d1565b036103e45750565b60018160048111156103f8576103f86107d1565b0361044a5760405162461bcd60e51b815260206004820152601860248201527f45434453413a20696e76616c6964207369676e6174757265000000000000000060448201526064015b60405180910390fd5b600281600481111561045e5761045e6107d1565b036104ab5760405162461bcd60e51b815260206004820152601f60248201527f45434453413a20696e76616c6964207369676e6174757265206c656e677468006044820152606401610441565b60038160048111156104bf576104bf6107d1565b036105175760405162461bcd60e51b815260206004820152602260248201527f45434453413a20696e76616c6964207369676e6174757265202773272076616c604482015261756560f01b6064820152608401610441565b50565b6000807f7fffffffffffffffffffffffffffffff5d576e7357a4501ddfe92f46681b20a083111561055157506000905060036105d5565b6040805160008082526020820180845289905260ff881692820192909252606081018690526080810185905260019060a0016020604051602081039080840390855afa1580156105a5573d6000803e3d6000fd5b5050604051601f1901519150506001600160a01b0381166105ce576000600192509250506105d5565b9150600090505b94509492505050565b60008083601f8401126105f057600080fd5b50813567ffffffffffffffff81111561060857600080fd5b6020830191508360208285010111156103c157600080fd5b6000806020838503121561063357600080fd5b823567ffffffffffffffff81111561064a57600080fd5b610656858286016105de565b90969095509350505050565b60006020828403121561067457600080fd5b81356001600160a01b038116811461021957600080fd5b6000806000604084860312156106a057600080fd5b83359250602084013567ffffffffffffffff8111156106be57600080fd5b6106ca868287016105de565b9497909650939450505050565b6000806000606084860312156106ec57600080fd5b833567ffffffffffffffff81111561070357600080fd5b8401610160818703121561071657600080fd5b95602085013595506040909401359392505050565b6000808585111561073b57600080fd5b8386111561074857600080fd5b5050820193919092039150565b6bffffffffffffffffffffffff1981358181169160148510156107825780818660140360031b1b83161692505b505092915050565b6000808335601e198436030181126107a157600080fd5b83018035915067ffffffffffffffff8211156107bc57600080fd5b6020019150368190038213156103c157600080fd5b634e487b7160e01b600052602160045260246000fdfea264697066735822122040d2b068594595a5f6181a4f48c50fbb7fc217718b3cdda6acefd070c3261d8964736f6c63430008130033",
    "linkReferences": {}
  },
  "methodIdentifiers": {
    "disable(bytes)": "8fc925aa",
    "ecdsaValidatorStorage(address)": "20709efc",
    "enable(bytes)": "0c959556",
    "validateSignature(bytes32,bytes)": "333daf92",
    "validateUserOp((address,uint256,bytes,bytes,uint256,uint256,uint256,uint256,uint256,bytes,bytes),bytes32,uint256)": "3a871cdd"
  },
  "id": 58
}