{
  "abi": [
    {
      "inputs": [
        {
          "internalType": "contract IEntryPoint",
          "name": "_entryPoint",
          "type": "address"
        }
      ],
      "stateMutability": "nonpayable",
      "type": "constructor"
    },
    {
      "anonymous": false,
      "inputs": [
        {
          "indexed": true,
          "internalType": "address",
          "name": "oldValidator",
          "type": "address"
        },
        {
          "indexed": true,
          "internalType": "address",
          "name": "newValidator",
          "type": "address"
        }
      ],
      "name": "DefaultValidatorChanged",
      "type": "event"
    },
    {
      "anonymous": false,
      "inputs": [
        {
          "indexed": true,
          "internalType": "bytes4",
          "name": "selector",
          "type": "bytes4"
        },
        {
          "indexed": true,
          "internalType": "address",
          "name": "executor",
          "type": "address"
        },
        {
          "indexed": true,
          "internalType": "address",
          "name": "validator",
          "type": "address"
        }
      ],
      "name": "ExecutionChanged",
      "type": "event"
    },
    {
      "anonymous": false,
      "inputs": [
        {
          "indexed": true,
          "internalType": "address",
          "name": "newImplementation",
          "type": "address"
        }
      ],
      "name": "Upgraded",
      "type": "event"
    },
    {
      "stateMutability": "payable",
      "type": "fallback"
    },
    {
      "inputs": [
        {
          "internalType": "bytes4",
          "name": "_disableFlag",
          "type": "bytes4"
        }
      ],
      "name": "disableMode",
      "outputs": [],
      "stateMutability": "nonpayable",
      "type": "function"
    },
    {
      "inputs": [],
      "name": "entryPoint",
      "outputs": [
        {
          "internalType": "contract IEntryPoint",
          "name": "",
          "type": "address"
        }
      ],
      "stateMutability": "view",
      "type": "function"
    },
    {
      "inputs": [
        {
          "internalType": "address",
          "name": "to",
          "type": "address"
        },
        {
          "internalType": "uint256",
          "name": "value",
          "type": "uint256"
        },
        {
          "internalType": "bytes",
          "name": "data",
          "type": "bytes"
        },
        {
          "internalType": "enum Operation",
          "name": "operation",
          "type": "uint8"
        }
      ],
      "name": "execute",
      "outputs": [],
      "stateMutability": "nonpayable",
      "type": "function"
    },
    {
      "inputs": [],
      "name": "getDefaultValidator",
      "outputs": [
        {
          "internalType": "contract IKernelValidator",
          "name": "",
          "type": "address"
        }
      ],
      "stateMutability": "view",
      "type": "function"
    },
    {
      "inputs": [],
      "name": "getDisabledMode",
      "outputs": [
        {
          "internalType": "bytes4",
          "name": "",
          "type": "bytes4"
        }
      ],
      "stateMutability": "view",
      "type": "function"
    },
    {
      "inputs": [
        {
          "internalType": "bytes4",
          "name": "_selector",
          "type": "bytes4"
        }
      ],
      "name": "getExecution",
      "outputs": [
        {
          "components": [
            {
              "internalType": "uint48",
              "name": "validUntil",
              "type": "uint48"
            },
            {
              "internalType": "uint48",
              "name": "validAfter",
              "type": "uint48"
            },
            {
              "internalType": "address",
              "name": "executor",
              "type": "address"
            },
            {
              "internalType": "contract IKernelValidator",
              "name": "validator",
              "type": "address"
            }
          ],
          "internalType": "struct ExecutionDetail",
          "name": "",
          "type": "tuple"
        }
      ],
      "stateMutability": "view",
      "type": "function"
    },
    {
      "inputs": [],
      "name": "getLastDisabledTime",
      "outputs": [
        {
          "internalType": "uint48",
          "name": "",
          "type": "uint48"
        }
      ],
      "stateMutability": "view",
      "type": "function"
    },
    {
      "inputs": [
        {
          "internalType": "uint192",
          "name": "key",
          "type": "uint192"
        }
      ],
      "name": "getNonce",
      "outputs": [
        {
          "internalType": "uint256",
          "name": "",
          "type": "uint256"
        }
      ],
      "stateMutability": "view",
      "type": "function"
    },
    {
      "inputs": [],
      "name": "getNonce",
      "outputs": [
        {
          "internalType": "uint256",
          "name": "",
          "type": "uint256"
        }
      ],
      "stateMutability": "view",
      "type": "function"
    },
    {
      "inputs": [
        {
          "internalType": "contract IKernelValidator",
          "name": "_defaultValidator",
          "type": "address"
        },
        {
          "internalType": "bytes",
          "name": "_data",
          "type": "bytes"
        }
      ],
      "name": "initialize",
      "outputs": [],
      "stateMutability": "nonpayable",
      "type": "function"
    },
    {
      "inputs": [
        {
          "internalType": "bytes32",
          "name": "hash",
          "type": "bytes32"
        },
        {
          "internalType": "bytes",
          "name": "signature",
          "type": "bytes"
        }
      ],
      "name": "isValidSignature",
      "outputs": [
        {
          "internalType": "bytes4",
          "name": "",
          "type": "bytes4"
        }
      ],
      "stateMutability": "view",
      "type": "function"
    },
    {
      "inputs": [],
      "name": "name",
      "outputs": [
        {
          "internalType": "string",
          "name": "",
          "type": "string"
        }
      ],
      "stateMutability": "view",
      "type": "function"
    },
    {
      "inputs": [
        {
          "internalType": "address",
          "name": "",
          "type": "address"
        },
        {
          "internalType": "address",
          "name": "",
          "type": "address"
        },
        {
          "internalType": "uint256[]",
          "name": "",
          "type": "uint256[]"
        },
        {
          "internalType": "uint256[]",
          "name": "",
          "type": "uint256[]"
        },
        {
          "internalType": "bytes",
          "name": "",
          "type": "bytes"
        }
      ],
      "name": "onERC1155BatchReceived",
      "outputs": [
        {
          "internalType": "bytes4",
          "name": "",
          "type": "bytes4"
        }
      ],
      "stateMutability": "pure",
      "type": "function"
    },
    {
      "inputs": [
        {
          "internalType": "address",
          "name": "",
          "type": "address"
        },
        {
          "internalType": "address",
          "name": "",
          "type": "address"
        },
        {
          "internalType": "uint256",
          "name": "",
          "type": "uint256"
        },
        {
          "internalType": "uint256",
          "name": "",
          "type": "uint256"
        },
        {
          "internalType": "bytes",
          "name": "",
          "type": "bytes"
        }
      ],
      "name": "onERC1155Received",
      "outputs": [
        {
          "internalType": "bytes4",
          "name": "",
          "type": "bytes4"
        }
      ],
      "stateMutability": "pure",
      "type": "function"
    },
    {
      "inputs": [
        {
          "internalType": "address",
          "name": "",
          "type": "address"
        },
        {
          "internalType": "address",
          "name": "",
          "type": "address"
        },
        {
          "internalType": "uint256",
          "name": "",
          "type": "uint256"
        },
        {
          "internalType": "bytes",
          "name": "",
          "type": "bytes"
        }
      ],
      "name": "onERC721Received",
      "outputs": [
        {
          "internalType": "bytes4",
          "name": "",
          "type": "bytes4"
        }
      ],
      "stateMutability": "pure",
      "type": "function"
    },
    {
      "inputs": [
        {
          "internalType": "contract IKernelValidator",
          "name": "_defaultValidator",
          "type": "address"
        },
        {
          "internalType": "bytes",
          "name": "_data",
          "type": "bytes"
        }
      ],
      "name": "setDefaultValidator",
      "outputs": [],
      "stateMutability": "nonpayable",
      "type": "function"
    },
    {
      "inputs": [
        {
          "internalType": "bytes4",
          "name": "_selector",
          "type": "bytes4"
        },
        {
          "internalType": "address",
          "name": "_executor",
          "type": "address"
        },
        {
          "internalType": "contract IKernelValidator",
          "name": "_validator",
          "type": "address"
        },
        {
          "internalType": "uint48",
          "name": "_validUntil",
          "type": "uint48"
        },
        {
          "internalType": "uint48",
          "name": "_validAfter",
          "type": "uint48"
        },
        {
          "internalType": "bytes",
          "name": "_enableData",
          "type": "bytes"
        }
      ],
      "name": "setExecution",
      "outputs": [],
      "stateMutability": "nonpayable",
      "type": "function"
    },
    {
      "inputs": [
        {
          "internalType": "address",
          "name": "_newImplementation",
          "type": "address"
        }
      ],
      "name": "upgradeTo",
      "outputs": [],
      "stateMutability": "nonpayable",
      "type": "function"
    },
    {
      "inputs": [
        {
          "components": [
            {
              "internalType": "address",
              "name": "sender",
              "type": "address"
            },
            {
              "internalType": "uint256",
              "name": "nonce",
              "type": "uint256"
            },
            {
              "internalType": "bytes",
              "name": "initCode",
              "type": "bytes"
            },
            {
              "internalType": "bytes",
              "name": "callData",
              "type": "bytes"
            },
            {
              "internalType": "uint256",
              "name": "callGasLimit",
              "type": "uint256"
            },
            {
              "internalType": "uint256",
              "name": "verificationGasLimit",
              "type": "uint256"
            },
            {
              "internalType": "uint256",
              "name": "preVerificationGas",
              "type": "uint256"
            },
            {
              "internalType": "uint256",
              "name": "maxFeePerGas",
              "type": "uint256"
            },
            {
              "internalType": "uint256",
              "name": "maxPriorityFeePerGas",
              "type": "uint256"
            },
            {
              "internalType": "bytes",
              "name": "paymasterAndData",
              "type": "bytes"
            },
            {
              "internalType": "bytes",
              "name": "signature",
              "type": "bytes"
            }
          ],
          "internalType": "struct UserOperation",
          "name": "userOp",
          "type": "tuple"
        },
        {
          "internalType": "bytes32",
          "name": "userOpHash",
          "type": "bytes32"
        },
        {
          "internalType": "uint256",
          "name": "missingAccountFunds",
          "type": "uint256"
        }
      ],
      "name": "validateUserOp",
      "outputs": [
        {
          "internalType": "uint256",
          "name": "validationData",
          "type": "uint256"
        }
      ],
      "stateMutability": "nonpayable",
      "type": "function"
    },
    {
      "inputs": [],
      "name": "version",
      "outputs": [
        {
          "internalType": "string",
          "name": "",
          "type": "string"
        }
      ],
      "stateMutability": "view",
      "type": "function"
    },
    {
      "stateMutability": "payable",
      "type": "receive"
    }
  ],
  "bytecode": {
    "object": "0x6101606040523480156200001257600080fd5b50604051620028243803806200282483398101604081905262000035916200018e565b604080518082018252600681526512d95c9b995b60d21b6020808301918252835180850185526005815264181718171960d91b908201529151902060e08190527fb30367effb941b728181f67f3bd24a38a4fff408ee7fb3b074425c9fb5e9be746101008190524660a081815285517f8b73c3c69bb8fe3d512ecc4cf759cc79239f7b179b0ffacaa9a75d522b39400f818701819052818801959095526060810193909352608080840192909252308382018190528651808503909201825260c09384019096528051940193909320909252919052610120526001600160a01b038116610140528060016200012962000158565b600101600a6101000a8154816001600160a01b0302191690836001600160a01b031602179055505050620001e2565b6000806200018860017f439ffe7df606b78489639bc0b827913bd09e1246fa6802968a5b3694c53e0dd9620001c0565b92915050565b600060208284031215620001a157600080fd5b81516001600160a01b0381168114620001b957600080fd5b9392505050565b818103818111156200018857634e487b7160e01b600052601160045260246000fd5b60805160a05160c05160e0516101005161012051610140516125a86200027c60003960008181610135015281816104af015281816106ff015281816108d30152818161098301528181610e6401528181610f7c015281816110b80152818161123c01526113b301526000611a8f01526000611ade01526000611ab901526000611a1201526000611a3c01526000611a6601526125a86000f3fe6080604052600436106101235760003560e01c806354fd4d50116100a0578063bc197c8111610064578063bc197c81146104d1578063d087d28814610500578063d1f5789414610515578063d541622114610535578063f23a6e61146105555761012a565b806354fd4d501461040b57806355b14f501461043c57806357b750471461045c57806388e7fd0614610471578063b0d691fe1461049d5761012a565b80633659cfe6116100e75780633659cfe6146103105780633a871cdd146103305780633e1b08121461035e57806351166ba01461037e57806351945447146103eb5761012a565b806306fdde03146102165780630b3dc3541461025e578063150b7a021461028b5780631626ba7e146102d057806329f8b174146102f05761012a565b3661012a57005b336001600160a01b037f000000000000000000000000000000000000000000000000000000000000000016146101a75760405162461bcd60e51b815260206004820152601c60248201527f6163636f756e743a206e6f742066726f6d20656e747279706f696e740000000060448201526064015b60405180910390fd5b600080356001600160e01b031916905060006101c1610582565b6001600160e01b0319831660009081526002919091016020526040812054600160601b90046001600160a01b0316915036908037600080366000845af43d6000803e80801561020f573d6000f35b3d6000fd5b005b34801561022257600080fd5b506102486040518060400160405280600681526020016512d95c9b995b60d21b81525081565b6040516102559190611b72565b60405180910390f35b34801561026a57600080fd5b506102736105b6565b6040516001600160a01b039091168152602001610255565b34801561029757600080fd5b506102b76102a6366004611bf5565b630a85bd0160e11b95945050505050565b6040516001600160e01b03199091168152602001610255565b3480156102dc57600080fd5b506102b76102eb366004611c67565b6105d9565b3480156102fc57600080fd5b5061021461030b366004611ce0565b6106f4565b34801561031c57600080fd5b5061021461032b366004611d7a565b6108c8565b34801561033c57600080fd5b5061035061034b366004611d97565b610976565b604051908152602001610255565b34801561036a57600080fd5b50610350610379366004611dea565b610e3d565b34801561038a57600080fd5b5061039e610399366004611e13565b610ed7565b60408051825165ffffffffffff908116825260208085015190911690820152828201516001600160a01b039081169282019290925260609283015190911691810191909152608001610255565b3480156103f757600080fd5b50610214610406366004611e2e565b610f71565b34801561041757600080fd5b5061024860405180604001604052806005815260200164181718171960d91b81525081565b34801561044857600080fd5b50610214610457366004611ea5565b6110ad565b34801561046857600080fd5b506102b76111e4565b34801561047d57600080fd5b506104866111fa565b60405165ffffffffffff9091168152602001610255565b3480156104a957600080fd5b506102737f000000000000000000000000000000000000000000000000000000000000000081565b3480156104dd57600080fd5b506102b76104ec366004611f24565b63bc197c8160e01b98975050505050505050565b34801561050c57600080fd5b5061035061121d565b34801561052157600080fd5b50610214610530366004611ea5565b6112b4565b34801561054157600080fd5b50610214610550366004611e13565b6113a8565b34801561056157600080fd5b506102b7610570366004611fe2565b63f23a6e6160e01b9695505050505050565b6000806105b060017f439ffe7df606b78489639bc0b827913bd09e1246fa6802968a5b3694c53e0dd9612073565b92915050565b60006105c0610582565b60010154600160501b90046001600160a01b0316919050565b6000806105e4610582565b6001015460405163199ed7c960e11b8152600160501b9091046001600160a01b03169063333daf929061061f908890889088906004016120af565b602060405180830381865afa15801561063c573d6000803e3d6000fd5b505050506040513d601f19601f8201168201806040525081019061066091906120d2565b9050600061066d8261144c565b905042816020015165ffffffffffff16111561069657506001600160e01b031991506106ed9050565b42816040015165ffffffffffff1610156106bd57506001600160e01b031991506106ed9050565b80516001600160a01b0316156106e057506001600160e01b031991506106ed9050565b50630b135d3f60e11b9150505b9392505050565b336001600160a01b037f000000000000000000000000000000000000000000000000000000000000000016148061072a57503330145b6107465760405162461bcd60e51b815260040161019e906120eb565b60405180608001604052808565ffffffffffff1681526020018465ffffffffffff168152602001876001600160a01b03168152602001866001600160a01b0316815250610791610582565b6001600160e01b031989166000908152600291909101602090815260409182902083518154928501518585015165ffffffffffff9283166001600160601b031990951694909417600160301b9290911691909102176001600160601b0316600160601b6001600160a01b0393841602178155606090930151600190930180546001600160a01b031916938216939093179092555163064acaab60e11b815290861690630c959556906108499085908590600401612138565b600060405180830381600087803b15801561086357600080fd5b505af1158015610877573d6000803e3d6000fd5b50506040516001600160a01b038089169350891691506001600160e01b03198a16907fed03d2572564284398470d3f266a693e29ddfff3eba45fc06c5e91013d32135390600090a450505050505050565b336001600160a01b037f00000000000000000000000000000000000000000000000000000000000000001614806108fe57503330145b61091a5760405162461bcd60e51b815260040161019e906120eb565b7f360894a13ba1a3210667c828492db98dca3e2076cc3735a920a3ca505d382bbc8181556040516001600160a01b038316907fbc7cd75a20ee27fd9adebab32041f755214dbc6bffa90cc0225b39da2e5c2d3b90600090a25050565b6000336001600160a01b037f000000000000000000000000000000000000000000000000000000000000000016146109f05760405162461bcd60e51b815260206004820152601c60248201527f6163636f756e743a206e6f742066726f6d20656e747279506f696e7400000000604482015260640161019e565b6000610a00610140860186612154565b610a0f9160049160009161219a565b610a18916121c4565b9050610a22610582565b6001015460e01b81166001600160e01b03191615610a7a5760405162461bcd60e51b81526020600482015260156024820152741ad95c9b995b0e881b5bd91948191a5cd8589b1959605a1b604482015260640161019e565b6000610a85866122bf565b9050600080610a976060890189612154565b610aa69160049160009161219a565b610aaf916121c4565b90506001600160e01b03198416600003610b4757610acc886122bf565b9250610adc610140890189612154565b610aea91600490829061219a565b8080601f016020809104026020016040519081016040528093929190818152602001838380828437600092019190915250505050610140840152610b2c610582565b60010154600160501b90046001600160a01b03169150610d59565b6001600160e01b03198416600160e01b03610c3d576000610b66610582565b6001600160e01b0319831660009081526002919091016020526040902060018101546001600160a01b03169350905082610bb957610ba2610582565b60010154600160501b90046001600160a01b031692505b610bc76101408a018a612154565b610bd591600490829061219a565b8080601f0160208091040260200160405190810160405280939291908181526020018383808284376000920191909152505050506101408501525460d081901b6001600160d01b031916600160301b90910460a01b65ffffffffffff60a01b16179450610d59565b6001600160e01b03198416600160e11b03610d4c57610c60610140890189612154565b610c6f9160249160109161219a565b610c78916123cd565b60601c91503660008181610c9985610c946101408f018f612154565b6114bd565b60405163064acaab60e11b8152949d50929750909550935091506001600160a01b03871690630c95955690610cd49087908790600401612138565b600060405180830381600087803b158015610cee57600080fd5b505af1158015610d02573d6000803e3d6000fd5b5050505081818080601f01602080910402602001604051908101604052809392919081815260200183838082843760009201919091525050505061014088015250610d5992505050565b60019450505050506106ed565b610dd585836001600160a01b0316633a871cdd868b8b6040518463ffffffff1660e01b8152600401610d8d939291906123fb565b6020604051808303816000875af1158015610dac573d6000803e3d6000fd5b505050506040513d601f19601f82011682018060405250810190610dd091906120d2565b61186e565b94508515610e3257604051600090339088908381818185875af1925050503d8060008114610e1f576040519150601f19603f3d011682016040523d82523d6000602084013e610e24565b606091505b5050905050505050506106ed565b505050509392505050565b604051631aab3f0d60e11b81523060048201526001600160c01b03821660248201526000907f00000000000000000000000000000000000000000000000000000000000000006001600160a01b0316906335567e1a90604401602060405180830381865afa158015610eb3573d6000803e3d6000fd5b505050506040513d601f19601f820116820180604052508101906105b091906120d2565b604080516080810182526000808252602082018190529181018290526060810191909152610f03610582565b6001600160e01b0319909216600090815260029290920160209081526040928390208351608081018552815465ffffffffffff8082168352600160301b820416938201939093526001600160a01b03600160601b909304831694810194909452600101541660608301525090565b336001600160a01b037f00000000000000000000000000000000000000000000000000000000000000001614610fe95760405162461bcd60e51b815260206004820152601c60248201527f6163636f756e743a206e6f742066726f6d20656e747279706f696e7400000000604482015260640161019e565b600060606001836001811115611001576110016124ed565b03611050576110468786868080601f01602080910402602001604051908101604052809392919081815260200183838082843760009201919091525061194992505050565b9092509050611097565b611091878787878080601f01602080910402602001604051908101604052809392919081815260200183838082843760009201919091525061197f92505050565b90925090505b816110a457805160208201fd5b50505050505050565b336001600160a01b037f00000000000000000000000000000000000000000000000000000000000000001614806110e357503330145b6110ff5760405162461bcd60e51b815260040161019e906120eb565b6000611109610582565b60010154600160501b90046001600160a01b0316905083611128610582565b6001018054600160501b600160f01b031916600160501b6001600160a01b0393841602179055604051858216918316907fa35f5cdc5fbabb614b4cd5064ce5543f43dc8fab0e4da41255230eb8aba2531c90600090a360405163064acaab60e11b81526001600160a01b03851690630c959556906111ac9086908690600401612138565b600060405180830381600087803b1580156111c657600080fd5b505af11580156111da573d6000803e3d6000fd5b5050505050505050565b60006111ee610582565b6001015460e01b919050565b6000611204610582565b60010154640100000000900465ffffffffffff16919050565b604051631aab3f0d60e11b8152306004820152600060248201819052907f00000000000000000000000000000000000000000000000000000000000000006001600160a01b0316906335567e1a90604401602060405180830381865afa15801561128b573d6000803e3d6000fd5b505050506040513d601f19601f820116820180604052508101906112af91906120d2565b905090565b60006112be610582565b6001810154909150600160501b90046001600160a01b0316156113235760405162461bcd60e51b815260206004820152601c60248201527f6163636f756e743a20616c726561647920696e697469616c697a656400000000604482015260640161019e565b600181018054600160501b600160f01b031916600160501b6001600160a01b038716908102919091179091556040516000907fa35f5cdc5fbabb614b4cd5064ce5543f43dc8fab0e4da41255230eb8aba2531c908290a360405163064acaab60e11b81526001600160a01b03851690630c959556906111ac9086908690600401612138565b336001600160a01b037f00000000000000000000000000000000000000000000000000000000000000001614806113de57503330145b6113fa5760405162461bcd60e51b815260040161019e906120eb565b80611403610582565b600101805463ffffffff191660e09290921c91909117905542611424610582565b60010160046101000a81548165ffffffffffff021916908365ffffffffffff16021790555050565b60408051606081018252600080825260208201819052918101919091528160a081901c65ffffffffffff8116600003611488575065ffffffffffff5b604080516060810182526001600160a01b03909316835260d09490941c602083015265ffffffffffff16928101929092525090565b600036818181806114d260586038898b61219a565b6114db91612503565b9050876058886114eb8483612521565b926114f89392919061219a565b90955093506000888861150c846058612521565b90611518856078612521565b926115259392919061219a565b61152e91612503565b60001c9050600061160f7f3ce406685c1b3551d706d85a68afdaa49ac4e07b451ad9b8ff8b58c3ee9641768c8c8c60049060249261156e9392919061219a565b61157791612503565b60001c8d8d60249060389261158e9392919061219a565b611597916123cd565b60601c8b8b6040516115aa929190612534565b6040519081900381206115f495949392916020019485526001600160e01b031993909316602085015260408401919091526001600160a01b03166060830152608082015260a00190565b604051602081830303815290604052805190602001206119b7565b90506116f761161c610582565b60010154600160501b90046001600160a01b031663333daf92838d8d611643896078612521565b90886116508b6078612521565b61165a9190612521565b926116679392919061219a565b6040518463ffffffff1660e01b8152600401611685939291906120af565b602060405180830381865afa1580156116a2573d6000803e3d6000fd5b505050506040513d601f19601f820116820180604052508101906116c691906120d2565b60a06001600160601b038016901b8c8c6004906024926116e89392919061219a565b6116f191612503565b1661186e565b9750898983611707866078612521565b6117119190612521565b61171c92829061219a565b604080516080810190915291965094508061173b600a60048d8f61219a565b61174491612544565b60d01c815260200161175a6010600a8d8f61219a565b61176391612544565b60d01c8152602001611779603860248d8f61219a565b611782916123cd565b60601c8152602001611798602460108d8f61219a565b6117a1916123cd565b60601c90526117ae610582565b6001600160e01b03198d166000908152600291909101602090815260409182902083518154928501519385015165ffffffffffff9182166001600160601b031990941693909317600160301b9190941602929092176001600160601b0316600160601b6001600160a01b0392831602178255606090920151600190910180546001600160a01b03191691909216179055878a60588b61184d8783612521565b9261185a9392919061219a565b975097509750505050939792965093509350565b6000816001600160a01b0316836001600160a01b0316146118d15760405162461bcd60e51b815260206004820152601d60248201527f6163636f756e743a20646966666572656e742061676772656761746f72000000604482015260640161019e565b60a083811c9060d085811c9185901c9085901c65ffffffffffff80831690851610156118fb578193505b8065ffffffffffff168365ffffffffffff161115611917578092505b60d08365ffffffffffff16901b60a08565ffffffffffff16901b886001600160a01b0316171794505050505092915050565b60006060600080845160208601875af491503d604051602082018101604052818152816000602083013e80925050509250929050565b6000606060008084516020860187895af191503d604051602082018101604052818152816000602083013e8092505050935093915050565b60006105b06119c4611a05565b8360405161190160f01b6020820152602281018390526042810182905260009060620160405160208183030381529060405280519060200120905092915050565b6000306001600160a01b037f000000000000000000000000000000000000000000000000000000000000000016148015611a5e57507f000000000000000000000000000000000000000000000000000000000000000046145b15611a8857507f000000000000000000000000000000000000000000000000000000000000000090565b50604080517f00000000000000000000000000000000000000000000000000000000000000006020808301919091527f0000000000000000000000000000000000000000000000000000000000000000828401527f000000000000000000000000000000000000000000000000000000000000000060608301524660808301523060a0808401919091528351808403909101815260c0909201909252805191012090565b6000815180845260005b81811015611b5257602081850181015186830182015201611b36565b506000602082860101526020601f19601f83011685010191505092915050565b6020815260006106ed6020830184611b2c565b6001600160a01b0381168114611b9a57600080fd5b50565b8035611ba881611b85565b919050565b60008083601f840112611bbf57600080fd5b5081356001600160401b03811115611bd657600080fd5b602083019150836020828501011115611bee57600080fd5b9250929050565b600080600080600060808688031215611c0d57600080fd5b8535611c1881611b85565b94506020860135611c2881611b85565b93506040860135925060608601356001600160401b03811115611c4a57600080fd5b611c5688828901611bad565b969995985093965092949392505050565b600080600060408486031215611c7c57600080fd5b8335925060208401356001600160401b03811115611c9957600080fd5b611ca586828701611bad565b9497909650939450505050565b80356001600160e01b031981168114611ba857600080fd5b803565ffffffffffff81168114611ba857600080fd5b600080600080600080600060c0888a031215611cfb57600080fd5b611d0488611cb2565b96506020880135611d1481611b85565b95506040880135611d2481611b85565b9450611d3260608901611cca565b9350611d4060808901611cca565b925060a08801356001600160401b03811115611d5b57600080fd5b611d678a828b01611bad565b989b979a50959850939692959293505050565b600060208284031215611d8c57600080fd5b81356106ed81611b85565b600080600060608486031215611dac57600080fd5b83356001600160401b03811115611dc257600080fd5b84016101608187031215611dd557600080fd5b95602085013595506040909401359392505050565b600060208284031215611dfc57600080fd5b81356001600160c01b03811681146106ed57600080fd5b600060208284031215611e2557600080fd5b6106ed82611cb2565b600080600080600060808688031215611e4657600080fd5b8535611e5181611b85565b94506020860135935060408601356001600160401b03811115611e7357600080fd5b611e7f88828901611bad565b909450925050606086013560028110611e9757600080fd5b809150509295509295909350565b600080600060408486031215611eba57600080fd5b8335611ec581611b85565b925060208401356001600160401b03811115611c9957600080fd5b60008083601f840112611ef257600080fd5b5081356001600160401b03811115611f0957600080fd5b6020830191508360208260051b8501011115611bee57600080fd5b60008060008060008060008060a0898b031215611f4057600080fd5b8835611f4b81611b85565b97506020890135611f5b81611b85565b965060408901356001600160401b0380821115611f7757600080fd5b611f838c838d01611ee0565b909850965060608b0135915080821115611f9c57600080fd5b611fa88c838d01611ee0565b909650945060808b0135915080821115611fc157600080fd5b50611fce8b828c01611bad565b999c989b5096995094979396929594505050565b60008060008060008060a08789031215611ffb57600080fd5b863561200681611b85565b9550602087013561201681611b85565b9450604087013593506060870135925060808701356001600160401b0381111561203f57600080fd5b61204b89828a01611bad565b979a9699509497509295939492505050565b634e487b7160e01b600052601160045260246000fd5b818103818111156105b0576105b061205d565b81835281816020850137506000828201602090810191909152601f909101601f19169091010190565b8381526040602082015260006120c9604083018486612086565b95945050505050565b6000602082840312156120e457600080fd5b5051919050565b6020808252602d908201527f6163636f756e743a206e6f742066726f6d20656e747279706f696e74206f722060408201526c37bbb732b91037b91039b2b63360991b606082015260800190565b60208152600061214c602083018486612086565b949350505050565b6000808335601e1984360301811261216b57600080fd5b8301803591506001600160401b0382111561218557600080fd5b602001915036819003821315611bee57600080fd5b600080858511156121aa57600080fd5b838611156121b757600080fd5b5050820193919092039150565b6001600160e01b031981358181169160048510156121ec5780818660040360031b1b83161692505b505092915050565b634e487b7160e01b600052604160045260246000fd5b60405161016081016001600160401b038111828210171561222d5761222d6121f4565b60405290565b600082601f83011261224457600080fd5b81356001600160401b038082111561225e5761225e6121f4565b604051601f8301601f19908116603f01168101908282118183101715612286576122866121f4565b8160405283815286602085880101111561229f57600080fd5b836020870160208301376000602085830101528094505050505092915050565b600061016082360312156122d257600080fd5b6122da61220a565b6122e383611b9d565b81526020830135602082015260408301356001600160401b038082111561230957600080fd5b61231536838701612233565b6040840152606085013591508082111561232e57600080fd5b61233a36838701612233565b60608401526080850135608084015260a085013560a084015260c085013560c084015260e085013560e0840152610100915081850135828401526101209150818501358181111561238a57600080fd5b61239636828801612233565b8385015250610140915081850135818111156123b157600080fd5b6123bd36828801612233565b8385015250505080915050919050565b6001600160601b031981358181169160148510156121ec5760149490940360031b84901b1690921692915050565b606081526124156060820185516001600160a01b03169052565b60208401516080820152600060408501516101608060a085015261243d6101c0850183611b2c565b91506060870151605f19808685030160c087015261245b8483611b2c565b9350608089015160e087015260a08901519150610100828188015260c08a01519250610120838189015260e08b0151935061014084818a0152828c0151868a0152818c0151955083898803016101808a01526124b78787611b2c565b9650808c0151955050505080868503016101a087015250506124d98282611b2c565b602085019690965250505060400152919050565b634e487b7160e01b600052602160045260246000fd5b803560208310156105b057600019602084900360031b1b1692915050565b808201808211156105b0576105b061205d565b8183823760009101908152919050565b6001600160d01b031981358181169160068510156121ec5760069490940360031b84901b169092169291505056fea26469706673582212209f6df7f22032b3cee95a3234234ae7076b83d52c18bdd6214c31cb28480f61b164736f6c63430008130033",
    "linkReferences": {}
  },
  "methodIdentifiers": {
    "disableMode(bytes4)": "d5416221",
    "entryPoint()": "b0d691fe",
    "execute(address,uint256,bytes,uint8)": "51945447",
    "getDefaultValidator()": "0b3dc354",
    "getDisabledMode()": "57b75047",
    "getExecution(bytes4)": "51166ba0",
    "getLastDisabledTime()": "88e7fd06",
    "getNonce()": "d087d288",
    "getNonce(uint192)": "3e1b0812",
    "initialize(address,bytes)": "d1f57894",
    "isValidSignature(bytes32,bytes)": "1626ba7e",
    "name()": "06fdde03",
    "onERC1155BatchReceived(address,address,uint256[],uint256[],bytes)": "bc197c81",
    "onERC1155Received(address,address,uint256,uint256,bytes)": "f23a6e61",
    "onERC721Received(address,address,uint256,bytes)": "150b7a02",
    "setDefaultValidator(address,bytes)": "55b14f50",
    "setExecution(bytes4,address,address,uint48,uint48,bytes)": "29f8b174",
    "upgradeTo(address)": "3659cfe6",
    "validateUserOp((address,uint256,bytes,bytes,uint256,uint256,uint256,uint256,uint256,bytes,bytes),bytes32,uint256)": "3a871cdd",
    "version()": "54fd4d50"
  },
  "id": 45
}