{
  "abi": [
    {
      "inputs": [
        {
          "internalType": "address",
          "name": "_token",
          "type": "address"
        },
        {
          "internalType": "uint256",
          "name": "_id",
          "type": "uint256"
        },
        {
          "internalType": "address",
          "name": "_to",
          "type": "address"
        }
      ],
      "name": "transferERC721Action",
      "outputs": [],
      "stateMutability": "nonpayable",
      "type": "function"
    }
  ],
  "bytecode": {
    "object": "0x608060405234801561001057600080fd5b50610131806100206000396000f3fe6080604052348015600f57600080fd5b506004361060285760003560e01c80631888bfd714602d575b600080fd5b603c603836600460c4565b603e565b005b6040516323b872dd60e01b81523060048201526001600160a01b038281166024830152604482018490528416906323b872dd90606401600060405180830381600087803b158015608d57600080fd5b505af115801560a0573d6000803e3d6000fd5b50505050505050565b80356001600160a01b038116811460bf57600080fd5b919050565b60008060006060848603121560d857600080fd5b60df8460a9565b92506020840135915060f26040850160a9565b9050925092509256fea264697066735822122032cda6cc2cb894340e23a3703e12b52ec4e0daf78aa00392d3dbd37d71fa9ab464736f6c63430008130033",
    "linkReferences": {}
  },
  "methodIdentifiers": {
    "transferERC721Action(address,uint256,address)": "1888bfd7"
  },
  "id": 48
}