{
  "_format": "hh-sol-artifact-1",
  "contractName": "ZeroDevSessionKeyPlugin",
  "sourceName": "src/plugin/ZeroDevSessionKeyPlugin.sol",
  "abi": [
    {
      "inputs": [],
      "stateMutability": "nonpayable",
      "type": "constructor"
    },
    {
      "inputs": [],
      "name": "InvalidData",
      "type": "error"
    },
    {
      "inputs": [],
      "name": "InvalidMerkleRoot",
      "type": "error"
    },
    {
      "inputs": [],
      "name": "InvalidSessionKey",
      "type": "error"
    },
    {
      "inputs": [],
      "name": "InvalidSignature",
      "type": "error"
    },
    {
      "inputs": [],
      "name": "SessionKeyRevokedError",
      "type": "error"
    },
    {
      "anonymous": false,
      "inputs": [
        {
          "indexed": true,
          "internalType": "address",
          "name": "key",
          "type": "address"
        }
      ],
      "name": "SessionKeyRevoked",
      "type": "event"
    },
    {
      "inputs": [
        {
          "internalType": "bytes",
          "name": "_packed",
          "type": "bytes"
        }
      ],
      "name": "parseDataAndSignature",
      "outputs": [
        {
          "internalType": "bytes",
          "name": "data",
          "type": "bytes"
        },
        {
          "internalType": "bytes",
          "name": "signature",
          "type": "bytes"
        }
      ],
      "stateMutability": "pure",
      "type": "function"
    },
    {
      "inputs": [
        {
          "internalType": "address",
          "name": "_key",
          "type": "address"
        }
      ],
      "name": "revokeSessionKey",
      "outputs": [],
      "stateMutability": "nonpayable",
      "type": "function"
    },
    {
      "inputs": [
        {
          "internalType": "address",
          "name": "_key",
          "type": "address"
        }
      ],
      "name": "revoked",
      "outputs": [
        {
          "internalType": "bool",
          "name": "",
          "type": "bool"
        }
      ],
      "stateMutability": "view",
      "type": "function"
    },
    {
      "inputs": [
        {
          "components": [
            {
              "internalType": "address",
              "name": "sender",
              "type": "address"
            },
            {
              "internalType": "uint256",
              "name": "nonce",
              "type": "uint256"
            },
            {
              "internalType": "bytes",
              "name": "initCode",
              "type": "bytes"
            },
            {
              "internalType": "bytes",
              "name": "callData",
              "type": "bytes"
            },
            {
              "internalType": "uint256",
              "name": "callGasLimit",
              "type": "uint256"
            },
            {
              "internalType": "uint256",
              "name": "verificationGasLimit",
              "type": "uint256"
            },
            {
              "internalType": "uint256",
              "name": "preVerificationGas",
              "type": "uint256"
            },
            {
              "internalType": "uint256",
              "name": "maxFeePerGas",
              "type": "uint256"
            },
            {
              "internalType": "uint256",
              "name": "maxPriorityFeePerGas",
              "type": "uint256"
            },
            {
              "internalType": "bytes",
              "name": "paymasterAndData",
              "type": "bytes"
            },
            {
              "internalType": "bytes",
              "name": "signature",
              "type": "bytes"
            }
          ],
          "internalType": "struct UserOperation",
          "name": "userOp",
          "type": "tuple"
        },
        {
          "internalType": "bytes32",
          "name": "userOpHash",
          "type": "bytes32"
        },
        {
          "internalType": "uint256",
          "name": "missingAccountFunds",
          "type": "uint256"
        }
      ],
      "name": "validatePluginData",
      "outputs": [
        {
          "internalType": "bool",
          "name": "validated",
          "type": "bool"
        }
      ],
      "stateMutability": "nonpayable",
      "type": "function"
    }
  ],
  "bytecode": "0x6101406040523480156200001257600080fd5b506040518060400160405280601781526020017f5a65726f44657653657373696f6e4b6579506c7567696e0000000000000000008152506040518060400160405280600581526020017f302e302e3100000000000000000000000000000000000000000000000000000081525060008280519060200120905060008280519060200120905060007f8b73c3c69bb8fe3d512ecc4cf759cc79239f7b179b0ffacaa9a75d522b39400f90508260e081815250508161010081815250504660a08181525050620000e88184846200013760201b60201c565b608081815250503073ffffffffffffffffffffffffffffffffffffffff1660c08173ffffffffffffffffffffffffffffffffffffffff168152505080610120818152505050505050506200024b565b6000838383463060405160200162000154959493929190620001ee565b6040516020818303038152906040528051906020012090509392505050565b6000819050919050565b620001888162000173565b82525050565b6000819050919050565b620001a3816200018e565b82525050565b600073ffffffffffffffffffffffffffffffffffffffff82169050919050565b6000620001d682620001a9565b9050919050565b620001e881620001c9565b82525050565b600060a0820190506200020560008301886200017d565b6200021460208301876200017d565b6200022360408301866200017d565b62000232606083018562000198565b620002416080830184620001dd565b9695505050505050565b60805160a05160c05160e0516101005161012051611b676200029b6000396000610b9a01526000610bdc01526000610bbb01526000610af001526000610b4601526000610b6f0152611b676000f3fe608060405234801561001057600080fd5b506004361061004c5760003560e01c806384f4fc6a14610051578063970aa9ad1461006d5780639e2045ce146100a0578063fa01dc06146100d0575b600080fd5b61006b60048036038101906100669190610fc0565b610100565b005b61008760048036038101906100829190611052565b6101a7565b60405161009794939291906110fd565b60405180910390f35b6100ba60048036038101906100b591906111c9565b6103a8565b6040516100c79190611253565b60405180910390f35b6100ea60048036038101906100e59190610fc0565b6103fd565b6040516100f79190611253565b60405180910390f35b600161010a61045c565b60000160008373ffffffffffffffffffffffffffffffffffffffff1673ffffffffffffffffffffffffffffffffffffffff16815260200190815260200160002060006101000a81548160ff0219169083151502179055508073ffffffffffffffffffffffffffffffffffffffff167f17c796fb82086b3c9effaec517342e5ca9ed8fd78c339137ec082f748ab60cbe60405160405180910390a250565b3660003660008086866000906020926101c293929190611278565b906101cd91906112cb565b60001c90506000878783906020856101e59190611359565b926101f293929190611278565b906101fd91906112cb565b60001c90506000888860209060409261021893929190611278565b9061022391906112cb565b60001c905060008989839060208561023b9190611359565b9261024893929190611278565b9061025391906112cb565b60001c905089896020866102679190611359565b90856020886102769190611359565b6102809190611359565b9261028d93929190611278565b9750975089896020846102a09190611359565b90836020866102af9190611359565b6102b99190611359565b926102c693929190611278565b9550955081602080856102d991906113bc565b6102e391906113ed565b6040866102f09190611359565b6102fa9190611359565b14610331576040517f5cb045db00000000000000000000000000000000000000000000000000000000815260040160405180910390fd5b898990506020808361034391906113bc565b61034d91906113ed565b60408461035a9190611359565b6103649190611359565b1461039b576040517f8baa579f00000000000000000000000000000000000000000000000000000000815260040160405180910390fd5b5050505092959194509250565b60003660003660006103da888061014001906103c4919061143e565b60619080926103d593929190611278565b6101a7565b93509350935093506103f088888686868661049b565b9450505050509392505050565b600061040761045c565b60000160008373ffffffffffffffffffffffffffffffffffffffff1673ffffffffffffffffffffffffffffffffffffffff16815260200190815260200160002060009054906101000a900460ff169050919050565b60008060017f6da8a1d7d4f224b5b2581a964c1890eb7e987638c691727e5a2a14ca24d03fd960001c61048f91906114a1565b60001b90508091505090565b60008085856000906014926104b293929190611278565b906104bd9190611501565b60601c90506104ca61045c565b60000160008273ffffffffffffffffffffffffffffffffffffffff1673ffffffffffffffffffffffffffffffffffffffff16815260200190815260200160002060009054906101000a900460ff161561054f576040517f84b83d5500000000000000000000000000000000000000000000000000000000815260040160405180910390fd5b6000868660149060349261056593929190611278565b9061057091906112cb565b90506000801b810361059957848460219060629261059093929190611278565b94509450610911565b6000858560008181106105af576105ae611560565b5b9050013560f81c60f81b60f81c90506060600060148360ff16036106d15787876001906015926105e193929190611278565b6040516105ef9291906115bf565b604051809103902090508787605690809261060c93929190611278565b8101906106199190611716565b9150878760019060159261062f93929190611278565b60405161063d9291906115bf565b60405180910390208c8060600190610655919061143e565b60109060249261066793929190611278565b6040516106759291906115bf565b6040518091039020146106b4576040517fbf10e9ba00000000000000000000000000000000000000000000000000000000815260040160405180910390fd5b87876015906056926106c893929190611278565b975097506108cc565b60188360ff16036108cb5787876001906019926106f093929190611278565b6040516106fe9291906115bf565b604051809103902090508787605a90809261071b93929190611278565b8101906107289190611716565b9150878760019060159261073e93929190611278565b60405161074c9291906115bf565b60405180910390208c8060600190610764919061143e565b60109060249261077693929190611278565b6040516107849291906115bf565b6040518091039020146107c3576040517fbf10e9ba00000000000000000000000000000000000000000000000000000000815260040160405180910390fd5b60008c80606001906107d5919061143e565b6044906064926107e793929190611278565b906107f291906112cb565b60001c90503660008e806060019061080a919061143e565b6024856108179190611359565b906028866108259190611359565b9261083293929190611278565b915091508a8a60159060199261084a93929190611278565b6040516108589291906115bf565b6040518091039020828260405161087092919061175f565b6040518091039020146108af576040517fbf10e9ba00000000000000000000000000000000000000000000000000000000815260040160405180910390fd5b8a8a601990605a926108c393929190611278565b9a509a505050505b5b6108d7828583610a3e565b61090d576040517f9dd854d300000000000000000000000000000000000000000000000000000000815260040160405180910390fd5b5050505b600061096a7ff0a98eef9608fd8bfe5833dfbc8b73ab86d0355db37a1f539565c5985ad1c2428a8c6020013560405160200161094f93929190611796565b60405160208183030381529060405280519060200120610a55565b905060006109c587878080601f016020809104026020016040519081016040528093929190818152602001838380828437600081840152601f19601f8201169050808301925050505050505083610a6f90919063ffffffff16565b90508373ffffffffffffffffffffffffffffffffffffffff168173ffffffffffffffffffffffffffffffffffffffff1614610a2c576040517f8baa579f00000000000000000000000000000000000000000000000000000000815260040160405180910390fd5b60019450505050509695505050505050565b600082610a4b8584610a96565b1490509392505050565b6000610a68610a62610aec565b83610c06565b9050919050565b6000806000610a7e8585610c39565b91509150610a8b81610c8a565b819250505092915050565b60008082905060005b8451811015610ae157610acc82868381518110610abf57610abe611560565b5b6020026020010151610df0565b91508080610ad9906117cd565b915050610a9f565b508091505092915050565b60007f000000000000000000000000000000000000000000000000000000000000000073ffffffffffffffffffffffffffffffffffffffff163073ffffffffffffffffffffffffffffffffffffffff16148015610b6857507f000000000000000000000000000000000000000000000000000000000000000046145b15610b95577f00000000000000000000000000000000000000000000000000000000000000009050610c03565b610c007f00000000000000000000000000000000000000000000000000000000000000007f00000000000000000000000000000000000000000000000000000000000000007f0000000000000000000000000000000000000000000000000000000000000000610e1b565b90505b90565b60008282604051602001610c1b92919061188d565b60405160208183030381529060405280519060200120905092915050565b6000806041835103610c7a5760008060006020860151925060408601519150606086015160001a9050610c6e87828585610e55565b94509450505050610c83565b60006002915091505b9250929050565b60006004811115610c9e57610c9d6118c4565b5b816004811115610cb157610cb06118c4565b5b0315610ded5760016004811115610ccb57610cca6118c4565b5b816004811115610cde57610cdd6118c4565b5b03610d1e576040517f08c379a0000000000000000000000000000000000000000000000000000000008152600401610d1590611950565b60405180910390fd5b60026004811115610d3257610d316118c4565b5b816004811115610d4557610d446118c4565b5b03610d85576040517f08c379a0000000000000000000000000000000000000000000000000000000008152600401610d7c906119bc565b60405180910390fd5b60036004811115610d9957610d986118c4565b5b816004811115610dac57610dab6118c4565b5b03610dec576040517f08c379a0000000000000000000000000000000000000000000000000000000008152600401610de390611a4e565b60405180910390fd5b5b50565b6000818310610e0857610e038284610f37565b610e13565b610e128383610f37565b5b905092915050565b60008383834630604051602001610e36959493929190611a7d565b6040516020818303038152906040528051906020012090509392505050565b6000807f7fffffffffffffffffffffffffffffff5d576e7357a4501ddfe92f46681b20a08360001c1115610e90576000600391509150610f2e565b600060018787878760405160008152602001604052604051610eb59493929190611aec565b6020604051602081039080840390855afa158015610ed7573d6000803e3d6000fd5b505050602060405103519050600073ffffffffffffffffffffffffffffffffffffffff168173ffffffffffffffffffffffffffffffffffffffff1603610f2557600060019250925050610f2e565b80600092509250505b94509492505050565b600082600052816020526040600020905092915050565b6000604051905090565b600080fd5b600080fd5b600073ffffffffffffffffffffffffffffffffffffffff82169050919050565b6000610f8d82610f62565b9050919050565b610f9d81610f82565b8114610fa857600080fd5b50565b600081359050610fba81610f94565b92915050565b600060208284031215610fd657610fd5610f58565b5b6000610fe484828501610fab565b91505092915050565b600080fd5b600080fd5b600080fd5b60008083601f84011261101257611011610fed565b5b8235905067ffffffffffffffff81111561102f5761102e610ff2565b5b60208301915083600182028301111561104b5761104a610ff7565b5b9250929050565b6000806020838503121561106957611068610f58565b5b600083013567ffffffffffffffff81111561108757611086610f5d565b5b61109385828601610ffc565b92509250509250929050565b600082825260208201905092915050565b82818337600083830152505050565b6000601f19601f8301169050919050565b60006110dc838561109f565b93506110e98385846110b0565b6110f2836110bf565b840190509392505050565b600060408201905081810360008301526111188186886110d0565b9050818103602083015261112d8184866110d0565b905095945050505050565b600080fd5b6000610160828403121561115457611153611138565b5b81905092915050565b6000819050919050565b6111708161115d565b811461117b57600080fd5b50565b60008135905061118d81611167565b92915050565b6000819050919050565b6111a681611193565b81146111b157600080fd5b50565b6000813590506111c38161119d565b92915050565b6000806000606084860312156111e2576111e1610f58565b5b600084013567ffffffffffffffff811115611200576111ff610f5d565b5b61120c8682870161113d565b935050602061121d8682870161117e565b925050604061122e868287016111b4565b9150509250925092565b60008115159050919050565b61124d81611238565b82525050565b60006020820190506112686000830184611244565b92915050565b600080fd5b600080fd5b6000808585111561128c5761128b61126e565b5b8386111561129d5761129c611273565b5b6001850283019150848603905094509492505050565b600082905092915050565b600082821b905092915050565b60006112d783836112b3565b826112e2813561115d565b925060208210156113225761131d7fffffffffffffffffffffffffffffffffffffffffffffffffffffffffffffffff836020036008026112be565b831692505b505092915050565b7f4e487b7100000000000000000000000000000000000000000000000000000000600052601160045260246000fd5b600061136482611193565b915061136f83611193565b92508282019050808211156113875761138661132a565b5b92915050565b7f4e487b7100000000000000000000000000000000000000000000000000000000600052601260045260246000fd5b60006113c782611193565b91506113d283611193565b9250826113e2576113e161138d565b5b828204905092915050565b60006113f882611193565b915061140383611193565b925082820261141181611193565b915082820484148315176114285761142761132a565b5b5092915050565b600080fd5b600080fd5b600080fd5b6000808335600160200384360303811261145b5761145a61142f565b5b80840192508235915067ffffffffffffffff82111561147d5761147c611434565b5b60208301925060018202360383131561149957611498611439565b5b509250929050565b60006114ac82611193565b91506114b783611193565b92508282039050818111156114cf576114ce61132a565b5b92915050565b60007fffffffffffffffffffffffffffffffffffffffff00000000000000000000000082169050919050565b600061150d83836112b3565b8261151881356114d5565b92506014821015611558576115537fffffffffffffffffffffffffffffffffffffffff000000000000000000000000836014036008026112be565b831692505b505092915050565b7f4e487b7100000000000000000000000000000000000000000000000000000000600052603260045260246000fd5b600081905092915050565b60006115a6838561158f565b93506115b38385846110b0565b82840190509392505050565b60006115cc82848661159a565b91508190509392505050565b7f4e487b7100000000000000000000000000000000000000000000000000000000600052604160045260246000fd5b611610826110bf565b810181811067ffffffffffffffff8211171561162f5761162e6115d8565b5b80604052505050565b6000611642610f4e565b905061164e8282611607565b919050565b600067ffffffffffffffff82111561166e5761166d6115d8565b5b602082029050602081019050919050565b600061169261168d84611653565b611638565b905080838252602082019050602084028301858111156116b5576116b4610ff7565b5b835b818110156116de57806116ca888261117e565b8452602084019350506020810190506116b7565b5050509392505050565b600082601f8301126116fd576116fc610fed565b5b813561170d84826020860161167f565b91505092915050565b60006020828403121561172c5761172b610f58565b5b600082013567ffffffffffffffff81111561174a57611749610f5d565b5b611756848285016116e8565b91505092915050565b600061176c82848661159a565b91508190509392505050565b6117818161115d565b82525050565b61179081611193565b82525050565b60006060820190506117ab6000830186611778565b6117b86020830185611778565b6117c56040830184611787565b949350505050565b60006117d882611193565b91507fffffffffffffffffffffffffffffffffffffffffffffffffffffffffffffffff820361180a5761180961132a565b5b600182019050919050565b600081905092915050565b7f1901000000000000000000000000000000000000000000000000000000000000600082015250565b6000611856600283611815565b915061186182611820565b600282019050919050565b6000819050919050565b6118876118828261115d565b61186c565b82525050565b600061189882611849565b91506118a48285611876565b6020820191506118b48284611876565b6020820191508190509392505050565b7f4e487b7100000000000000000000000000000000000000000000000000000000600052602160045260246000fd5b600082825260208201905092915050565b7f45434453413a20696e76616c6964207369676e61747572650000000000000000600082015250565b600061193a6018836118f3565b915061194582611904565b602082019050919050565b600060208201905081810360008301526119698161192d565b9050919050565b7f45434453413a20696e76616c6964207369676e6174757265206c656e67746800600082015250565b60006119a6601f836118f3565b91506119b182611970565b602082019050919050565b600060208201905081810360008301526119d581611999565b9050919050565b7f45434453413a20696e76616c6964207369676e6174757265202773272076616c60008201527f7565000000000000000000000000000000000000000000000000000000000000602082015250565b6000611a386022836118f3565b9150611a43826119dc565b604082019050919050565b60006020820190508181036000830152611a6781611a2b565b9050919050565b611a7781610f82565b82525050565b600060a082019050611a926000830188611778565b611a9f6020830187611778565b611aac6040830186611778565b611ab96060830185611787565b611ac66080830184611a6e565b9695505050505050565b600060ff82169050919050565b611ae681611ad0565b82525050565b6000608082019050611b016000830187611778565b611b0e6020830186611add565b611b1b6040830185611778565b611b286060830184611778565b9594505050505056fea26469706673582212204199dd420f164ced6ae2b4f076e2a07f78bc839f6cdb47e4813976923204673764736f6c63430008120033",
  "linkReferences": {},
  "deployedLinkReferences": {}
}