{
  "abi": [
    {
      "anonymous": false,
      "inputs": [
        {
          "indexed": false,
          "internalType": "bytes",
          "name": "data",
          "type": "bytes"
        }
      ],
      "name": "TestDisable",
      "type": "event"
    },
    {
      "anonymous": false,
      "inputs": [
        {
          "indexed": false,
          "internalType": "bytes",
          "name": "data",
          "type": "bytes"
        }
      ],
      "name": "TestEnable",
      "type": "event"
    },
    {
      "anonymous": false,
      "inputs": [
        {
          "indexed": true,
          "internalType": "bytes32",
          "name": "opHash",
          "type": "bytes32"
        }
      ],
      "name": "TestValidateUserOp",
      "type": "event"
    },
    {
      "inputs": [
        {
          "internalType": "bytes",
          "name": "data",
          "type": "bytes"
        }
      ],
      "name": "disable",
      "outputs": [],
      "stateMutability": "nonpayable",
      "type": "function"
    },
    {
      "inputs": [
        {
          "internalType": "bytes",
          "name": "data",
          "type": "bytes"
        }
      ],
      "name": "enable",
      "outputs": [],
      "stateMutability": "nonpayable",
      "type": "function"
    },
    {
      "inputs": [
        {
          "internalType": "bytes32",
          "name": "",
          "type": "bytes32"
        },
        {
          "internalType": "bytes",
          "name": "",
          "type": "bytes"
        }
      ],
      "name": "validateSignature",
      "outputs": [
        {
          "internalType": "uint256",
          "name": "",
          "type": "uint256"
        }
      ],
      "stateMutability": "pure",
      "type": "function"
    },
    {
      "inputs": [
        {
          "components": [
            {
              "internalType": "address",
              "name": "sender",
              "type": "address"
            },
            {
              "internalType": "uint256",
              "name": "nonce",
              "type": "uint256"
            },
            {
              "internalType": "bytes",
              "name": "initCode",
              "type": "bytes"
            },
            {
              "internalType": "bytes",
              "name": "callData",
              "type": "bytes"
            },
            {
              "internalType": "uint256",
              "name": "callGasLimit",
              "type": "uint256"
            },
            {
              "internalType": "uint256",
              "name": "verificationGasLimit",
              "type": "uint256"
            },
            {
              "internalType": "uint256",
              "name": "preVerificationGas",
              "type": "uint256"
            },
            {
              "internalType": "uint256",
              "name": "maxFeePerGas",
              "type": "uint256"
            },
            {
              "internalType": "uint256",
              "name": "maxPriorityFeePerGas",
              "type": "uint256"
            },
            {
              "internalType": "bytes",
              "name": "paymasterAndData",
              "type": "bytes"
            },
            {
              "internalType": "bytes",
              "name": "signature",
              "type": "bytes"
            }
          ],
          "internalType": "struct UserOperation",
          "name": "",
          "type": "tuple"
        },
        {
          "internalType": "bytes32",
          "name": "userOpHash",
          "type": "bytes32"
        },
        {
          "internalType": "uint256",
          "name": "",
          "type": "uint256"
        }
      ],
      "name": "validateUserOp",
      "outputs": [
        {
          "internalType": "uint256",
          "name": "",
          "type": "uint256"
        }
      ],
      "stateMutability": "nonpayable",
      "type": "function"
    }
  ],
  "bytecode": {
    "object": "0x608060405234801561001057600080fd5b506102ea806100206000396000f3fe608060405234801561001057600080fd5b506004361061004c5760003560e01c80630c95955614610051578063333daf92146100665780633a871cdd1461008f5780638fc925aa146100a2575b600080fd5b61006461005f3660046101a3565b6100b5565b005b61007d6100743660046101e5565b60009392505050565b60405190815260200160405180910390f35b61007d61009d366004610231565b6100f2565b6100646100b03660046101a3565b610129565b7f922f539bed2f4316a86667a01be796c6b99b06e0973c1a8f2f2ae00248a8aa9982826040516100e6929190610285565b60405180910390a15050565b60405160009083907fae558fbb7a994f092e9397c1b4d366ec05bd994700a824dd687af1e3f2bc90b4908390a25060009392505050565b7f0c05120e82c790155e6cdb902df89f8e4551dcdcaaabbe2366a99a862d65e82082826040516100e6929190610285565b60008083601f84011261016c57600080fd5b50813567ffffffffffffffff81111561018457600080fd5b60208301915083602082850101111561019c57600080fd5b9250929050565b600080602083850312156101b657600080fd5b823567ffffffffffffffff8111156101cd57600080fd5b6101d98582860161015a565b90969095509350505050565b6000806000604084860312156101fa57600080fd5b83359250602084013567ffffffffffffffff81111561021857600080fd5b6102248682870161015a565b9497909650939450505050565b60008060006060848603121561024657600080fd5b833567ffffffffffffffff81111561025d57600080fd5b8401610160818703121561027057600080fd5b95602085013595506040909401359392505050565b60208152816020820152818360408301376000818301604090810191909152601f909201601f1916010191905056fea2646970667358221220a31bb34c440373d1b7285524476d747ceb7c043455ffda56d58b6d9949a6a9e164736f6c63430008130033",
    "linkReferences": {}
  },
  "methodIdentifiers": {
    "disable(bytes)": "8fc925aa",
    "enable(bytes)": "0c959556",
    "validateSignature(bytes32,bytes)": "333daf92",
    "validateUserOp((address,uint256,bytes,bytes,uint256,uint256,uint256,uint256,uint256,bytes,bytes),bytes32,uint256)": "3a871cdd"
  },
  "id": 55
}