{
  "abi": [
    {
      "inputs": [
        {
          "internalType": "bytes",
          "name": "_data",
          "type": "bytes"
        }
      ],
      "name": "disable",
      "outputs": [],
      "stateMutability": "nonpayable",
      "type": "function"
    },
    {
      "inputs": [
        {
          "internalType": "bytes",
          "name": "_data",
          "type": "bytes"
        }
      ],
      "name": "enable",
      "outputs": [],
      "stateMutability": "nonpayable",
      "type": "function"
    },
    {
      "inputs": [
        {
          "internalType": "address",
          "name": "",
          "type": "address"
        },
        {
          "internalType": "address",
          "name": "",
          "type": "address"
        }
      ],
      "name": "sessionKeys",
      "outputs": [
        {
          "internalType": "bool",
          "name": "enabled",
          "type": "bool"
        },
        {
          "internalType": "bytes4",
          "name": "selector",
          "type": "bytes4"
        },
        {
          "internalType": "bytes4",
          "name": "interfaceId",
          "type": "bytes4"
        },
        {
          "internalType": "uint48",
          "name": "validUntil",
          "type": "uint48"
        },
        {
          "internalType": "uint48",
          "name": "validAfter",
          "type": "uint48"
        },
        {
          "internalType": "uint32",
          "name": "addressOffset",
          "type": "uint32"
        }
      ],
      "stateMutability": "view",
      "type": "function"
    },
    {
      "inputs": [
        {
          "internalType": "bytes32",
          "name": "",
          "type": "bytes32"
        },
        {
          "internalType": "bytes",
          "name": "",
          "type": "bytes"
        }
      ],
      "name": "validateSignature",
      "outputs": [
        {
          "internalType": "uint256",
          "name": "",
          "type": "uint256"
        }
      ],
      "stateMutability": "pure",
      "type": "function"
    },
    {
      "inputs": [
        {
          "components": [
            {
              "internalType": "address",
              "name": "sender",
              "type": "address"
            },
            {
              "internalType": "uint256",
              "name": "nonce",
              "type": "uint256"
            },
            {
              "internalType": "bytes",
              "name": "initCode",
              "type": "bytes"
            },
            {
              "internalType": "bytes",
              "name": "callData",
              "type": "bytes"
            },
            {
              "internalType": "uint256",
              "name": "callGasLimit",
              "type": "uint256"
            },
            {
              "internalType": "uint256",
              "name": "verificationGasLimit",
              "type": "uint256"
            },
            {
              "internalType": "uint256",
              "name": "preVerificationGas",
              "type": "uint256"
            },
            {
              "internalType": "uint256",
              "name": "maxFeePerGas",
              "type": "uint256"
            },
            {
              "internalType": "uint256",
              "name": "maxPriorityFeePerGas",
              "type": "uint256"
            },
            {
              "internalType": "bytes",
              "name": "paymasterAndData",
              "type": "bytes"
            },
            {
              "internalType": "bytes",
              "name": "signature",
              "type": "bytes"
            }
          ],
          "internalType": "struct UserOperation",
          "name": "_userOp",
          "type": "tuple"
        },
        {
          "internalType": "bytes32",
          "name": "_userOpHash",
          "type": "bytes32"
        },
        {
          "internalType": "uint256",
          "name": "",
          "type": "uint256"
        }
      ],
      "name": "validateUserOp",
      "outputs": [
        {
          "internalType": "uint256",
          "name": "",
          "type": "uint256"
        }
      ],
      "stateMutability": "view",
      "type": "function"
    }
  ],
  "bytecode": {
    "object": "0x608060405234801561001057600080fd5b50610c52806100206000396000f3fe608060405234801561001057600080fd5b50600436106100575760003560e01c80630c9595561461005c578063333daf92146100715780633a871cdd146100975780638fc925aa146100aa57806396ade1f9146100bd575b600080fd5b61006f61006a366004610964565b610179565b005b61008461007f3660046109a6565b61034e565b6040519081526020015b60405180910390f35b6100846100a53660046109f2565b610390565b61006f6100b8366004610964565b610661565b61012c6100cb366004610a62565b600060208181529281526040808220909352908152205460ff811690610100810460e090811b9165010000000000810490911b9065ffffffffffff600160481b8204811691600160781b81049091169063ffffffff600160a81b9091041686565b6040805196151587526001600160e01b03199586166020880152939094169285019290925265ffffffffffff908116606085015216608083015263ffffffff1660a082015260c00161008e565b60006101886014828486610a95565b61019191610abf565b60601c905060006101a6601860148587610a95565b6101af91610af4565b905060006101c1601c60188688610a95565b6101ca91610af4565b905060006101dc6022601c8789610a95565b6101e591610b22565b60d01c905060006101fa60286022888a610a95565b61020391610b22565b60d01c90506000610218602c6028898b610a95565b61022191610af4565b6040805160c081018252600181526001600160e01b031996871660208083019182529890971681830190815265ffffffffffff968716606083019081529587166080830190815260e094851c60a08401908152336000908152808c528581206001600160a01b039d909d1681529b909a5292909920905181549751995195519251985164ffffffffff1990981690151564ffffffff0019161761010099841c99909902989098176effffffffffffffffffff00000000001916650100000000009490921c939093026effffffffffff000000000000000000191617600160481b928416929092029190911769ffffffffffffffffffff60781b1916600160781b949092169390930263ffffffff60a81b191617600160a81b63ffffffff9092169190910217909155505050565b60405162461bcd60e51b815260206004820152600f60248201526e1b9bdd081a5b5c1b195b595b9d1959608a1b60448201526000906064015b60405180910390fd5b6000806103ea846040517f19457468657265756d205369676e6564204d6573736167653a0a3332000000006020820152603c8101829052600090605c01604051602081830303815290604052805190602001209050919050565b9050600061043a82610400610140890189610b50565b8080601f0160208091040260200160405190810160405280939291908181526020018383808284376000920191909152506106a892505050565b90506000808061044d60208a018a610b97565b6001600160a01b03908116825260208083019390935260409182016000908120918616815292529020805490915060ff1661048e576001935050505061065a565b8054610100900460e01b6001600160e01b0319166104af6060890189610b50565b6104be91600491600091610a95565b6104c791610af4565b6001600160e01b031916146105175760405162461bcd60e51b81526020600482015260166024820152753737ba1039bab83837b93a32b21039b2b632b1ba37b960511b6044820152606401610387565b60006105266060890189610b50565b8354600160a81b900463ffffffff1690610541826014610bb2565b63ffffffff169261055493929190610a95565b61055d91610abf565b82546040516301ffc9a760e01b81526501000000000090910460e01b6001600160e01b031916600482015260609190911c915081906301ffc9a790602401602060405180830381865afa1580156105b8573d6000803e3d6000fd5b505050506040513d601f19601f820116820180604052508101906105dc9190610be4565b6106285760405162461bcd60e51b815260206004820152601a60248201527f646f6573206e6f7420737570706f727420696e746572666163650000000000006044820152606401610387565b5054600160481b810460d01b6001600160d01b031916600160781b90910460a01b65ffffffffffff60a01b1617925050505b9392505050565b60006106706014828486610a95565b61067991610abf565b3360009081526020818152604080832060609490941c83529290522080546001600160c81b0319169055505050565b60008060006106b785856106cc565b915091506106c481610711565b509392505050565b60008082516041036107025760208301516040840151606085015160001a6106f68782858561085e565b9450945050505061070a565b506000905060025b9250929050565b600081600481111561072557610725610c06565b0361072d5750565b600181600481111561074157610741610c06565b0361078e5760405162461bcd60e51b815260206004820152601860248201527f45434453413a20696e76616c6964207369676e617475726500000000000000006044820152606401610387565b60028160048111156107a2576107a2610c06565b036107ef5760405162461bcd60e51b815260206004820152601f60248201527f45434453413a20696e76616c6964207369676e6174757265206c656e677468006044820152606401610387565b600381600481111561080357610803610c06565b0361085b5760405162461bcd60e51b815260206004820152602260248201527f45434453413a20696e76616c6964207369676e6174757265202773272076616c604482015261756560f01b6064820152608401610387565b50565b6000807f7fffffffffffffffffffffffffffffff5d576e7357a4501ddfe92f46681b20a08311156108955750600090506003610919565b6040805160008082526020820180845289905260ff881692820192909252606081018690526080810185905260019060a0016020604051602081039080840390855afa1580156108e9573d6000803e3d6000fd5b5050604051601f1901519150506001600160a01b03811661091257600060019250925050610919565b9150600090505b94509492505050565b60008083601f84011261093457600080fd5b50813567ffffffffffffffff81111561094c57600080fd5b60208301915083602082850101111561070a57600080fd5b6000806020838503121561097757600080fd5b823567ffffffffffffffff81111561098e57600080fd5b61099a85828601610922565b90969095509350505050565b6000806000604084860312156109bb57600080fd5b83359250602084013567ffffffffffffffff8111156109d957600080fd5b6109e586828701610922565b9497909650939450505050565b600080600060608486031215610a0757600080fd5b833567ffffffffffffffff811115610a1e57600080fd5b84016101608187031215610a3157600080fd5b95602085013595506040909401359392505050565b80356001600160a01b0381168114610a5d57600080fd5b919050565b60008060408385031215610a7557600080fd5b610a7e83610a46565b9150610a8c60208401610a46565b90509250929050565b60008085851115610aa557600080fd5b83861115610ab257600080fd5b5050820193919092039150565b6bffffffffffffffffffffffff198135818116916014851015610aec5780818660140360031b1b83161692505b505092915050565b6001600160e01b03198135818116916004851015610aec5760049490940360031b84901b1690921692915050565b6001600160d01b03198135818116916006851015610aec5760069490940360031b84901b1690921692915050565b6000808335601e19843603018112610b6757600080fd5b83018035915067ffffffffffffffff821115610b8257600080fd5b60200191503681900382131561070a57600080fd5b600060208284031215610ba957600080fd5b61065a82610a46565b63ffffffff818116838216019080821115610bdd57634e487b7160e01b600052601160045260246000fd5b5092915050565b600060208284031215610bf657600080fd5b8151801515811461065a57600080fd5b634e487b7160e01b600052602160045260246000fdfea264697066735822122031271385abdbb93f45a234e8403f4682d2b04cbe42183fb9b613b6ffbf9cc95864736f6c63430008130033",
    "linkReferences": {}
  },
  "methodIdentifiers": {
    "disable(bytes)": "8fc925aa",
    "enable(bytes)": "0c959556",
    "sessionKeys(address,address)": "96ade1f9",
    "validateSignature(bytes32,bytes)": "333daf92",
    "validateUserOp((address,uint256,bytes,bytes,uint256,uint256,uint256,uint256,uint256,bytes,bytes),bytes32,uint256)": "3a871cdd"
  },
  "id": 59
}