{
  "abi": [
    {
      "inputs": [
        {
          "internalType": "contract KernelFactory",
          "name": "_singletonFactory",
          "type": "address"
        },
        {
          "internalType": "contract ECDSAValidator",
          "name": "_validator",
          "type": "address"
        }
      ],
      "stateMutability": "nonpayable",
      "type": "constructor"
    },
    {
      "inputs": [
        {
          "internalType": "address",
          "name": "_owner",
          "type": "address"
        },
        {
          "internalType": "uint256",
          "name": "_index",
          "type": "uint256"
        }
      ],
      "name": "createAccount",
      "outputs": [
        {
          "internalType": "contract EIP1967Proxy",
          "name": "proxy",
          "type": "address"
        }
      ],
      "stateMutability": "nonpayable",
      "type": "function"
    },
    {
      "inputs": [
        {
          "internalType": "address",
          "name": "_owner",
          "type": "address"
        },
        {
          "internalType": "uint256",
          "name": "_index",
          "type": "uint256"
        }
      ],
      "name": "getAccountAddress",
      "outputs": [
        {
          "internalType": "address",
          "name": "",
          "type": "address"
        }
      ],
      "stateMutability": "view",
      "type": "function"
    }
  ],
  "bytecode": {
    "object": "0x60c060405234801561001057600080fd5b506040516103f33803806103f383398101604081905261002f9161005e565b6001600160a01b039182166080521660a052610098565b6001600160a01b038116811461005b57600080fd5b50565b6000806040838503121561007157600080fd5b825161007c81610046565b602084015190925061008d81610046565b809150509250929050565b60805160a05161032a6100c96000396000818160f201526101dc01526000818160bd01526101a7015261032a6000f3fe608060405234801561001057600080fd5b50600436106100365760003560e01c80630d253d761461003b5780635fbfb9cf1461006a575b600080fd5b61004e61004936600461023f565b61007d565b6040516001600160a01b03909116815260200160405180910390f35b61004e61007836600461023f565b610167565b60408051606084901b6bffffffffffffffffffffffff19166020820152815160148183030181526034820192839052631bb12e6960e01b909252600091907f00000000000000000000000000000000000000000000000000000000000000006001600160a01b031690631bb12e699061011e907f0000000000000000000000000000000000000000000000000000000000000000908590889060380161026b565b602060405180830381865afa15801561013b573d6000803e3d6000fd5b505050506040513d601f19601f8201168201806040525081019061015f91906102d0565b949350505050565b60408051606084901b6bffffffffffffffffffffffff1916602082015281516014818303018152603482019283905263296601cd60e01b909252600091907f00000000000000000000000000000000000000000000000000000000000000006001600160a01b03169063296601cd90610208907f0000000000000000000000000000000000000000000000000000000000000000908590889060380161026b565b6020604051808303816000875af115801561013b573d6000803e3d6000fd5b6001600160a01b038116811461023c57600080fd5b50565b6000806040838503121561025257600080fd5b823561025d81610227565b946020939093013593505050565b60018060a01b038416815260006020606081840152845180606085015260005b818110156102a75786810183015185820160800152820161028b565b506000608082860101526080601f19601f83011685010192505050826040830152949350505050565b6000602082840312156102e257600080fd5b81516102ed81610227565b939250505056fea26469706673582212206b665356be000388a7017bee70c82cd765b1bf528b76ef324c4fc9d17acd203864736f6c63430008130033",
    "linkReferences": {}
  },
  "methodIdentifiers": {
    "createAccount(address,uint256)": "5fbfb9cf",
    "getAccountAddress(address,uint256)": "0d253d76"
  },
  "id": 49
}