{
  "abi": [
    {
      "anonymous": false,
      "inputs": [],
      "name": "TestExecutorDoNothing",
      "type": "event"
    },
    {
      "inputs": [],
      "name": "doNothing",
      "outputs": [],
      "stateMutability": "nonpayable",
      "type": "function"
    }
  ],
  "bytecode": {
    "object": "0x6080604052348015600f57600080fd5b5060968061001e6000396000f3fe6080604052348015600f57600080fd5b506004361060285760003560e01c80632f576f2014602d575b600080fd5b60336035565b005b6040517f8f7ce9aaab943c6d7e06bd91c1c2df6f0f794e2b46525dc5557a3cc842f0d31390600090a156fea26469706673582212203b948dc0baee848fe637f825d6a93c932c9321d9194f6b7c3478b3f01bb6a04564736f6c63430008130033",
    "linkReferences": {}
  },
  "methodIdentifiers": {
    "doNothing()": "2f576f20"
  },
  "id": 54
}