{
  "_format": "hh-sol-artifact-1",
  "contractName": "Kernel",
  "sourceName": "src/Kernel.sol",
  "abi": [
    {
      "inputs": [
        {
          "internalType": "contract IEntryPoint",
          "name": "_entryPoint",
          "type": "address"
        }
      ],
      "stateMutability": "nonpayable",
      "type": "constructor"
    },
    {
      "inputs": [],
      "name": "AlreadyInitialized",
      "type": "error"
    },
    {
      "inputs": [],
      "name": "InvalidNonce",
      "type": "error"
    },
    {
      "inputs": [],
      "name": "InvalidSignatureLength",
      "type": "error"
    },
    {
      "inputs": [],
      "name": "NotFromEntryPoint",
      "type": "error"
    },
    {
      "inputs": [],
      "name": "NotFromEntryPointOrOwner",
      "type": "error"
    },
    {
      "inputs": [
        {
          "internalType": "bytes",
          "name": "result",
          "type": "bytes"
        }
      ],
      "name": "QueryResult",
      "type": "error"
    },
    {
      "anonymous": false,
      "inputs": [
        {
          "indexed": true,
          "internalType": "address",
          "name": "newImplementation",
          "type": "address"
        }
      ],
      "name": "Upgraded",
      "type": "event"
    },
    {
      "inputs": [],
      "name": "entryPoint",
      "outputs": [
        {
          "internalType": "contract IEntryPoint",
          "name": "",
          "type": "address"
        }
      ],
      "stateMutability": "view",
      "type": "function"
    },
    {
      "inputs": [
        {
          "internalType": "address",
          "name": "to",
          "type": "address"
        },
        {
          "internalType": "uint256",
          "name": "value",
          "type": "uint256"
        },
        {
          "internalType": "bytes",
          "name": "data",
          "type": "bytes"
        },
        {
          "internalType": "enum Operation",
          "name": "operation",
          "type": "uint8"
        }
      ],
      "name": "executeAndRevert",
      "outputs": [],
      "stateMutability": "nonpayable",
      "type": "function"
    },
    {
      "inputs": [
        {
          "internalType": "uint192",
          "name": "key",
          "type": "uint192"
        }
      ],
      "name": "getNonce",
      "outputs": [
        {
          "internalType": "uint256",
          "name": "",
          "type": "uint256"
        }
      ],
      "stateMutability": "view",
      "type": "function"
    },
    {
      "inputs": [],
      "name": "getNonce",
      "outputs": [
        {
          "internalType": "uint256",
          "name": "",
          "type": "uint256"
        }
      ],
      "stateMutability": "view",
      "type": "function"
    },
    {
      "inputs": [],
      "name": "getOwner",
      "outputs": [
        {
          "internalType": "address",
          "name": "",
          "type": "address"
        }
      ],
      "stateMutability": "view",
      "type": "function"
    },
    {
      "inputs": [
        {
          "internalType": "address",
          "name": "_owner",
          "type": "address"
        }
      ],
      "name": "initialize",
      "outputs": [],
      "stateMutability": "nonpayable",
      "type": "function"
    },
    {
      "inputs": [
        {
          "internalType": "bytes32",
          "name": "_hash",
          "type": "bytes32"
        },
        {
          "internalType": "bytes",
          "name": "_signature",
          "type": "bytes"
        }
      ],
      "name": "isValidSignature",
      "outputs": [
        {
          "internalType": "bytes4",
          "name": "",
          "type": "bytes4"
        }
      ],
      "stateMutability": "view",
      "type": "function"
    },
    {
      "inputs": [],
      "name": "name",
      "outputs": [
        {
          "internalType": "string",
          "name": "",
          "type": "string"
        }
      ],
      "stateMutability": "view",
      "type": "function"
    },
    {
      "inputs": [
        {
          "internalType": "address",
          "name": "",
          "type": "address"
        },
        {
          "internalType": "address",
          "name": "",
          "type": "address"
        },
        {
          "internalType": "uint256[]",
          "name": "",
          "type": "uint256[]"
        },
        {
          "internalType": "uint256[]",
          "name": "",
          "type": "uint256[]"
        },
        {
          "internalType": "bytes",
          "name": "",
          "type": "bytes"
        }
      ],
      "name": "onERC1155BatchReceived",
      "outputs": [
        {
          "internalType": "bytes4",
          "name": "",
          "type": "bytes4"
        }
      ],
      "stateMutability": "pure",
      "type": "function"
    },
    {
      "inputs": [
        {
          "internalType": "address",
          "name": "",
          "type": "address"
        },
        {
          "internalType": "address",
          "name": "",
          "type": "address"
        },
        {
          "internalType": "uint256",
          "name": "",
          "type": "uint256"
        },
        {
          "internalType": "uint256",
          "name": "",
          "type": "uint256"
        },
        {
          "internalType": "bytes",
          "name": "",
          "type": "bytes"
        }
      ],
      "name": "onERC1155Received",
      "outputs": [
        {
          "internalType": "bytes4",
          "name": "",
          "type": "bytes4"
        }
      ],
      "stateMutability": "pure",
      "type": "function"
    },
    {
      "inputs": [
        {
          "internalType": "address",
          "name": "",
          "type": "address"
        },
        {
          "internalType": "address",
          "name": "",
          "type": "address"
        },
        {
          "internalType": "uint256",
          "name": "",
          "type": "uint256"
        },
        {
          "internalType": "bytes",
          "name": "",
          "type": "bytes"
        }
      ],
      "name": "onERC721Received",
      "outputs": [
        {
          "internalType": "bytes4",
          "name": "",
          "type": "bytes4"
        }
      ],
      "stateMutability": "pure",
      "type": "function"
    },
    {
      "inputs": [
        {
          "internalType": "address",
          "name": "_plugin",
          "type": "address"
        },
        {
          "internalType": "bytes",
          "name": "_data",
          "type": "bytes"
        }
      ],
      "name": "queryPlugin",
      "outputs": [],
      "stateMutability": "nonpayable",
      "type": "function"
    },
    {
      "inputs": [
        {
          "internalType": "address",
          "name": "_newOwner",
          "type": "address"
        }
      ],
      "name": "transferOwnership",
      "outputs": [],
      "stateMutability": "nonpayable",
      "type": "function"
    },
    {
      "inputs": [
        {
          "internalType": "address",
          "name": "_newImplementation",
          "type": "address"
        }
      ],
      "name": "upgradeTo",
      "outputs": [],
      "stateMutability": "nonpayable",
      "type": "function"
    },
    {
      "inputs": [
        {
          "components": [
            {
              "internalType": "address",
              "name": "sender",
              "type": "address"
            },
            {
              "internalType": "uint256",
              "name": "nonce",
              "type": "uint256"
            },
            {
              "internalType": "bytes",
              "name": "initCode",
              "type": "bytes"
            },
            {
              "internalType": "bytes",
              "name": "callData",
              "type": "bytes"
            },
            {
              "internalType": "uint256",
              "name": "callGasLimit",
              "type": "uint256"
            },
            {
              "internalType": "uint256",
              "name": "verificationGasLimit",
              "type": "uint256"
            },
            {
              "internalType": "uint256",
              "name": "preVerificationGas",
              "type": "uint256"
            },
            {
              "internalType": "uint256",
              "name": "maxFeePerGas",
              "type": "uint256"
            },
            {
              "internalType": "uint256",
              "name": "maxPriorityFeePerGas",
              "type": "uint256"
            },
            {
              "internalType": "bytes",
              "name": "paymasterAndData",
              "type": "bytes"
            },
            {
              "internalType": "bytes",
              "name": "signature",
              "type": "bytes"
            }
          ],
          "internalType": "struct UserOperation",
          "name": "userOp",
          "type": "tuple"
        },
        {
          "internalType": "bytes32",
          "name": "userOpHash",
          "type": "bytes32"
        },
        {
          "internalType": "uint256",
          "name": "missingAccountFunds",
          "type": "uint256"
        }
      ],
      "name": "validateUserOp",
      "outputs": [
        {
          "internalType": "uint256",
          "name": "validationData",
          "type": "uint256"
        }
      ],
      "stateMutability": "nonpayable",
      "type": "function"
    },
    {
      "inputs": [],
      "name": "version",
      "outputs": [
        {
          "internalType": "string",
          "name": "",
          "type": "string"
        }
      ],
      "stateMutability": "view",
      "type": "function"
    },
    {
      "stateMutability": "payable",
      "type": "receive"
    }
  ],
  "bytecode": "0x6101606040523480156200001257600080fd5b50604051620033a6380380620033a68339818101604052810190620000389190620002e2565b806040518060400160405280600681526020017f4b65726e656c00000000000000000000000000000000000000000000000000008152506040518060400160405280600581526020017f302e302e3100000000000000000000000000000000000000000000000000000081525060008280519060200120905060008280519060200120905060007f8b73c3c69bb8fe3d512ecc4cf759cc79239f7b179b0ffacaa9a75d522b39400f90508260e081815250508161010081815250504660a081815250506200010e818484620001e760201b60201c565b608081815250503073ffffffffffffffffffffffffffffffffffffffff1660c08173ffffffffffffffffffffffffffffffffffffffff168152505080610120818152505050505050508073ffffffffffffffffffffffffffffffffffffffff166101408173ffffffffffffffffffffffffffffffffffffffff168152505060016200019e6200022360201b60201c565b60000160006101000a81548173ffffffffffffffffffffffffffffffffffffffff021916908373ffffffffffffffffffffffffffffffffffffffff160217905550505062000422565b60008383834630604051602001620002049594939291906200035b565b6040516020818303038152906040528051906020012090509392505050565b60008060017f439ffe7df606b78489639bc0b827913bd09e1246fa6802968a5b3694c53e0dd960001c620002589190620003e7565b60001b90508091505090565b600080fd5b600073ffffffffffffffffffffffffffffffffffffffff82169050919050565b6000620002968262000269565b9050919050565b6000620002aa8262000289565b9050919050565b620002bc816200029d565b8114620002c857600080fd5b50565b600081519050620002dc81620002b1565b92915050565b600060208284031215620002fb57620002fa62000264565b5b60006200030b84828501620002cb565b91505092915050565b6000819050919050565b620003298162000314565b82525050565b6000819050919050565b62000344816200032f565b82525050565b620003558162000289565b82525050565b600060a0820190506200037260008301886200031e565b6200038160208301876200031e565b6200039060408301866200031e565b6200039f606083018562000339565b620003ae60808301846200034a565b9695505050505050565b7f4e487b7100000000000000000000000000000000000000000000000000000000600052601160045260246000fd5b6000620003f4826200032f565b915062000401836200032f565b92508282039050818111156200041c576200041b620003b8565b5b92915050565b60805160a05160c05160e051610100516101205161014051612eff620004a76000396000818161057a0152818161071301528181610b0c01528181610c1b01528181610dfd01528181610f180152610fd0015260006117e90152600061182b0152600061180a0152600061173f01526000611795015260006117be0152612eff6000f3fe6080604052600436106100f75760003560e01c8063940d3c601161008a578063d087d28811610059578063d087d2881461035b578063f23a6e6114610386578063f2fde38b146103c3578063f333df55146103ec576100fe565b8063940d3c60146102a1578063b0d691fe146102ca578063bc197c81146102f5578063c4d66de814610332576100fe565b80633a871cdd116100c65780633a871cdd146101d15780633e1b08121461020e57806354fd4d501461024b578063893d20e814610276576100fe565b806306fdde0314610103578063150b7a021461012e5780631626ba7e1461016b5780633659cfe6146101a8576100fe565b366100fe57005b600080fd5b34801561010f57600080fd5b50610118610415565b6040516101259190611a34565b60405180910390f35b34801561013a57600080fd5b5061015560048036038101906101509190611b63565b61044e565b6040516101629190611c26565b60405180910390f35b34801561017757600080fd5b50610192600480360381019061018d9190611da7565b610463565b60405161019f9190611c26565b60405180910390f35b3480156101b457600080fd5b506101cf60048036038101906101ca9190611e03565b610578565b005b3480156101dd57600080fd5b506101f860048036038101906101f39190611e55565b61070f565b6040516102059190611ed3565b60405180910390f35b34801561021a57600080fd5b5061023560048036038101906102309190611f3e565b610b08565b6040516102429190611ed3565b60405180910390f35b34801561025757600080fd5b50610260610bad565b60405161026d9190611a34565b60405180910390f35b34801561028257600080fd5b5061028b610be6565b6040516102989190611f7a565b60405180910390f35b3480156102ad57600080fd5b506102c860048036038101906102c39190611fba565b610c19565b005b3480156102d657600080fd5b506102df610dfb565b6040516102ec91906120a1565b60405180910390f35b34801561030157600080fd5b5061031c60048036038101906103179190612112565b610e1f565b6040516103299190611c26565b60405180910390f35b34801561033e57600080fd5b5061035960048036038101906103549190611e03565b610e37565b005b34801561036757600080fd5b50610370610f14565b60405161037d9190611ed3565b60405180910390f35b34801561039257600080fd5b506103ad60048036038101906103a891906121ee565b610fb8565b6040516103ba9190611c26565b60405180910390f35b3480156103cf57600080fd5b506103ea60048036038101906103e59190611e03565b610fce565b005b3480156103f857600080fd5b50610413600480360381019061040e9190612288565b611140565b005b6040518060400160405280600681526020017f4b65726e656c000000000000000000000000000000000000000000000000000081525081565b600063150b7a0260e01b905095945050505050565b60008061046e6111e0565b905061047a848461121f565b73ffffffffffffffffffffffffffffffffffffffff168160000160009054906101000a900473ffffffffffffffffffffffffffffffffffffffff1673ffffffffffffffffffffffffffffffffffffffff16036104e057631626ba7e60e01b915050610572565b60006104eb85611246565b905060006104f9828661121f565b90508073ffffffffffffffffffffffffffffffffffffffff168360000160009054906101000a900473ffffffffffffffffffffffffffffffffffffffff1673ffffffffffffffffffffffffffffffffffffffff160361056457631626ba7e60e01b9350505050610572565b63ffffffff60e01b93505050505b92915050565b7f000000000000000000000000000000000000000000000000000000000000000073ffffffffffffffffffffffffffffffffffffffff163373ffffffffffffffffffffffffffffffffffffffff16148061062857506105d56111e0565b60000160009054906101000a900473ffffffffffffffffffffffffffffffffffffffff1673ffffffffffffffffffffffffffffffffffffffff163373ffffffffffffffffffffffffffffffffffffffff16145b8061065e57503073ffffffffffffffffffffffffffffffffffffffff163373ffffffffffffffffffffffffffffffffffffffff16145b61069d576040517f08c379a00000000000000000000000000000000000000000000000000000000081526004016106949061235a565b60405180910390fd5b60007f360894a13ba1a3210667c828492db98dca3e2076cc3735a920a3ca505d382bbc60001b90508181558173ffffffffffffffffffffffffffffffffffffffff167fbc7cd75a20ee27fd9adebab32041f755214dbc6bffa90cc0225b39da2e5c2d3b60405160405180910390a25050565b60007f000000000000000000000000000000000000000000000000000000000000000073ffffffffffffffffffffffffffffffffffffffff163373ffffffffffffffffffffffffffffffffffffffff1614610796576040517f1beb36f400000000000000000000000000000000000000000000000000000000815260040160405180910390fd5b6041848061014001906107a99190612389565b9050036107c1576107ba8484611276565b9050610a85565b6061848061014001906107d49190612389565b90501115610a52576000848061014001906107ef9190612389565b600090601492610801939291906123f6565b9061080c9190612475565b60601c90506000858061014001906108249190612389565b601490601a92610836939291906123f6565b906108419190612500565b60d01c90506000868061014001906108599190612389565b601a9060209261086b939291906123f6565b906108769190612500565b60d01c905060008780610140019061088e9190612389565b6020906061926108a0939291906123f6565b8080601f016020809104026020016040519081016040528093929190818152602001838380828437600081840152601f19601f8201169050808301925050505050505090506000888061014001906108f89190612389565b6061908092610909939291906123f6565b810190610916919061255f565b50905060006109797f4584533bad8bbd8aa77024a548a56acb8d2807847381ce1b3364745ca396b2e3878787868051906020012060405160200161095e959493929190612607565b60405160208183030381529060405280519060200120611417565b90506000610987828561121f565b90508073ffffffffffffffffffffffffffffffffffffffff166109a86111e0565b60000160009054906101000a900473ffffffffffffffffffffffffffffffffffffffff1673ffffffffffffffffffffffffffffffffffffffff16146109f7576001975050505050505050610b01565b6000610a05888d8d8d611431565b9050600081806020019051810190610a1d9190612692565b905080610a365760019950505050505050505050610b01565b610a42811589896114dd565b9950505050505050505050610a84565b6040517f4be6321b00000000000000000000000000000000000000000000000000000000815260040160405180910390fd5b5b6000821115610b005760003373ffffffffffffffffffffffffffffffffffffffff1683604051610ab4906126f0565b60006040518083038185875af1925050503d8060008114610af1576040519150601f19603f3d011682016040523d82523d6000602084013e610af6565b606091505b5050905050610b01565b5b9392505050565b60007f000000000000000000000000000000000000000000000000000000000000000073ffffffffffffffffffffffffffffffffffffffff166335567e1a30846040518363ffffffff1660e01b8152600401610b65929190612714565b602060405180830381865afa158015610b82573d6000803e3d6000fd5b505050506040513d601f19601f82011682018060405250810190610ba69190612752565b9050919050565b6040518060400160405280600581526020017f302e302e3100000000000000000000000000000000000000000000000000000081525081565b6000610bf06111e0565b60000160009054906101000a900473ffffffffffffffffffffffffffffffffffffffff16905090565b7f000000000000000000000000000000000000000000000000000000000000000073ffffffffffffffffffffffffffffffffffffffff163373ffffffffffffffffffffffffffffffffffffffff1614158015610ccc5750610c786111e0565b60000160009054906101000a900473ffffffffffffffffffffffffffffffffffffffff1673ffffffffffffffffffffffffffffffffffffffff163373ffffffffffffffffffffffffffffffffffffffff1614155b15610d03576040517f7f5117bb00000000000000000000000000000000000000000000000000000000815260040160405180910390fd5b60006060600180811115610d1a57610d1961277f565b5b836001811115610d2d57610d2c61277f565b5b03610d8d57610d808786868080601f016020809104026020016040519081016040528093929190818152602001838380828437600081840152601f19601f82011690508083019250505050505050611516565b8092508193505050610de5565b610ddc878787878080601f016020809104026020016040519081016040528093929190818152602001838380828437600081840152601f19601f8201169050808301925050505050505061154c565b80925081935050505b81610df257805160208201fd5b50505050505050565b7f000000000000000000000000000000000000000000000000000000000000000081565b600063bc197c8160e01b905098975050505050505050565b6000610e416111e0565b9050600073ffffffffffffffffffffffffffffffffffffffff168160000160009054906101000a900473ffffffffffffffffffffffffffffffffffffffff1673ffffffffffffffffffffffffffffffffffffffff1614610ecd576040517f0dc149f000000000000000000000000000000000000000000000000000000000815260040160405180910390fd5b818160000160006101000a81548173ffffffffffffffffffffffffffffffffffffffff021916908373ffffffffffffffffffffffffffffffffffffffff1602179055505050565b60007f000000000000000000000000000000000000000000000000000000000000000073ffffffffffffffffffffffffffffffffffffffff166335567e1a3060006040518363ffffffff1660e01b8152600401610f729291906127e9565b602060405180830381865afa158015610f8f573d6000803e3d6000fd5b505050506040513d601f19601f82011682018060405250810190610fb39190612752565b905090565b600063f23a6e6160e01b90509695505050505050565b7f000000000000000000000000000000000000000000000000000000000000000073ffffffffffffffffffffffffffffffffffffffff163373ffffffffffffffffffffffffffffffffffffffff16148061107e575061102b6111e0565b60000160009054906101000a900473ffffffffffffffffffffffffffffffffffffffff1673ffffffffffffffffffffffffffffffffffffffff163373ffffffffffffffffffffffffffffffffffffffff16145b806110b457503073ffffffffffffffffffffffffffffffffffffffff163373ffffffffffffffffffffffffffffffffffffffff16145b6110f3576040517f08c379a00000000000000000000000000000000000000000000000000000000081526004016110ea9061235a565b60405180910390fd5b806110fc6111e0565b60000160006101000a81548173ffffffffffffffffffffffffffffffffffffffff021916908373ffffffffffffffffffffffffffffffffffffffff16021790555050565b6000806111918585858080601f016020809104026020016040519081016040528093929190818152602001838380828437600081840152601f19601f82011690508083019250505050505050611516565b9150915081156111d857806040517fa52b21690000000000000000000000000000000000000000000000000000000081526004016111cf9190612867565b60405180910390fd5b805160208201fd5b60008060017f439ffe7df606b78489639bc0b827913bd09e1246fa6802968a5b3694c53e0dd960001c61121391906128b8565b60001b90508091505090565b600080600061122e8585611584565b9150915061123b816115d5565b819250505092915050565b6000816040516020016112599190612964565b604051602081830303815290604052805190602001209050919050565b6000806112816111e0565b90506112e083858061014001906112989190612389565b8080601f016020809104026020016040519081016040528093929190818152602001838380828437600081840152601f19601f8201169050808301925050505050505061121f565b73ffffffffffffffffffffffffffffffffffffffff168160000160009054906101000a900473ffffffffffffffffffffffffffffffffffffffff1673ffffffffffffffffffffffffffffffffffffffff160361133c5750611411565b600061134784611246565b905060006113a882878061014001906113609190612389565b8080601f016020809104026020016040519081016040528093929190818152602001838380828437600081840152601f19601f8201169050808301925050505050505061121f565b90508073ffffffffffffffffffffffffffffffffffffffff168360000160009054906101000a900473ffffffffffffffffffffffffffffffffffffffff1673ffffffffffffffffffffffffffffffffffffffff161461140d5760019350505050611411565b5050505b92915050565b600061142a61142461173b565b83611855565b9050919050565b60606000639e2045ce60e01b85858560405160240161145293929190612bea565b604051602081830303815290604052907bffffffffffffffffffffffffffffffffffffffffffffffffffffffff19166020820180517bffffffffffffffffffffffffffffffffffffffffffffffffffffffff838183161783525050505090506000806114be8884611516565b91509150816114cf57805160208201fd5b809350505050949350505050565b600060d08265ffffffffffff16901b60a08465ffffffffffff16901b85611505576000611508565b60015b60ff16171790509392505050565b60006060600080845160208601875af491503d604051602082018101604052818152816000602083013e80925050509250929050565b6000606060008084516020860187895af191503d604051602082018101604052818152816000602083013e8092505050935093915050565b60008060418351036115c55760008060006020860151925060408601519150606086015160001a90506115b987828585611888565b945094505050506115ce565b60006002915091505b9250929050565b600060048111156115e9576115e861277f565b5b8160048111156115fc576115fb61277f565b5b031561173857600160048111156116165761161561277f565b5b8160048111156116295761162861277f565b5b03611669576040517f08c379a000000000000000000000000000000000000000000000000000000000815260040161166090612c74565b60405180910390fd5b6002600481111561167d5761167c61277f565b5b8160048111156116905761168f61277f565b5b036116d0576040517f08c379a00000000000000000000000000000000000000000000000000000000081526004016116c790612ce0565b60405180910390fd5b600360048111156116e4576116e361277f565b5b8160048111156116f7576116f661277f565b5b03611737576040517f08c379a000000000000000000000000000000000000000000000000000000000815260040161172e90612d72565b60405180910390fd5b5b50565b60007f000000000000000000000000000000000000000000000000000000000000000073ffffffffffffffffffffffffffffffffffffffff163073ffffffffffffffffffffffffffffffffffffffff161480156117b757507f000000000000000000000000000000000000000000000000000000000000000046145b156117e4577f00000000000000000000000000000000000000000000000000000000000000009050611852565b61184f7f00000000000000000000000000000000000000000000000000000000000000007f00000000000000000000000000000000000000000000000000000000000000007f000000000000000000000000000000000000000000000000000000000000000061196a565b90505b90565b6000828260405160200161186a929190612dde565b60405160208183030381529060405280519060200120905092915050565b6000807f7fffffffffffffffffffffffffffffff5d576e7357a4501ddfe92f46681b20a08360001c11156118c3576000600391509150611961565b6000600187878787604051600081526020016040526040516118e89493929190612e31565b6020604051602081039080840390855afa15801561190a573d6000803e3d6000fd5b505050602060405103519050600073ffffffffffffffffffffffffffffffffffffffff168173ffffffffffffffffffffffffffffffffffffffff160361195857600060019250925050611961565b80600092509250505b94509492505050565b60008383834630604051602001611985959493929190612e76565b6040516020818303038152906040528051906020012090509392505050565b600081519050919050565b600082825260208201905092915050565b60005b838110156119de5780820151818401526020810190506119c3565b60008484015250505050565b6000601f19601f8301169050919050565b6000611a06826119a4565b611a1081856119af565b9350611a208185602086016119c0565b611a29816119ea565b840191505092915050565b60006020820190508181036000830152611a4e81846119fb565b905092915050565b6000604051905090565b600080fd5b600080fd5b600073ffffffffffffffffffffffffffffffffffffffff82169050919050565b6000611a9582611a6a565b9050919050565b611aa581611a8a565b8114611ab057600080fd5b50565b600081359050611ac281611a9c565b92915050565b6000819050919050565b611adb81611ac8565b8114611ae657600080fd5b50565b600081359050611af881611ad2565b92915050565b600080fd5b600080fd5b600080fd5b60008083601f840112611b2357611b22611afe565b5b8235905067ffffffffffffffff811115611b4057611b3f611b03565b5b602083019150836001820283011115611b5c57611b5b611b08565b5b9250929050565b600080600080600060808688031215611b7f57611b7e611a60565b5b6000611b8d88828901611ab3565b9550506020611b9e88828901611ab3565b9450506040611baf88828901611ae9565b935050606086013567ffffffffffffffff811115611bd057611bcf611a65565b5b611bdc88828901611b0d565b92509250509295509295909350565b60007fffffffff0000000000000000000000000000000000000000000000000000000082169050919050565b611c2081611beb565b82525050565b6000602082019050611c3b6000830184611c17565b92915050565b6000819050919050565b611c5481611c41565b8114611c5f57600080fd5b50565b600081359050611c7181611c4b565b92915050565b600080fd5b7f4e487b7100000000000000000000000000000000000000000000000000000000600052604160045260246000fd5b611cb4826119ea565b810181811067ffffffffffffffff82111715611cd357611cd2611c7c565b5b80604052505050565b6000611ce6611a56565b9050611cf28282611cab565b919050565b600067ffffffffffffffff821115611d1257611d11611c7c565b5b611d1b826119ea565b9050602081019050919050565b82818337600083830152505050565b6000611d4a611d4584611cf7565b611cdc565b905082815260208101848484011115611d6657611d65611c77565b5b611d71848285611d28565b509392505050565b600082601f830112611d8e57611d8d611afe565b5b8135611d9e848260208601611d37565b91505092915050565b60008060408385031215611dbe57611dbd611a60565b5b6000611dcc85828601611c62565b925050602083013567ffffffffffffffff811115611ded57611dec611a65565b5b611df985828601611d79565b9150509250929050565b600060208284031215611e1957611e18611a60565b5b6000611e2784828501611ab3565b91505092915050565b600080fd5b60006101608284031215611e4c57611e4b611e30565b5b81905092915050565b600080600060608486031215611e6e57611e6d611a60565b5b600084013567ffffffffffffffff811115611e8c57611e8b611a65565b5b611e9886828701611e35565b9350506020611ea986828701611c62565b9250506040611eba86828701611ae9565b9150509250925092565b611ecd81611ac8565b82525050565b6000602082019050611ee86000830184611ec4565b92915050565b600077ffffffffffffffffffffffffffffffffffffffffffffffff82169050919050565b611f1b81611eee565b8114611f2657600080fd5b50565b600081359050611f3881611f12565b92915050565b600060208284031215611f5457611f53611a60565b5b6000611f6284828501611f29565b91505092915050565b611f7481611a8a565b82525050565b6000602082019050611f8f6000830184611f6b565b92915050565b60028110611fa257600080fd5b50565b600081359050611fb481611f95565b92915050565b600080600080600060808688031215611fd657611fd5611a60565b5b6000611fe488828901611ab3565b9550506020611ff588828901611ae9565b945050604086013567ffffffffffffffff81111561201657612015611a65565b5b61202288828901611b0d565b9350935050606061203588828901611fa5565b9150509295509295909350565b6000819050919050565b600061206761206261205d84611a6a565b612042565b611a6a565b9050919050565b60006120798261204c565b9050919050565b600061208b8261206e565b9050919050565b61209b81612080565b82525050565b60006020820190506120b66000830184612092565b92915050565b60008083601f8401126120d2576120d1611afe565b5b8235905067ffffffffffffffff8111156120ef576120ee611b03565b5b60208301915083602082028301111561210b5761210a611b08565b5b9250929050565b60008060008060008060008060a0898b03121561213257612131611a60565b5b60006121408b828c01611ab3565b98505060206121518b828c01611ab3565b975050604089013567ffffffffffffffff81111561217257612171611a65565b5b61217e8b828c016120bc565b9650965050606089013567ffffffffffffffff8111156121a1576121a0611a65565b5b6121ad8b828c016120bc565b9450945050608089013567ffffffffffffffff8111156121d0576121cf611a65565b5b6121dc8b828c01611b0d565b92509250509295985092959890939650565b60008060008060008060a0878903121561220b5761220a611a60565b5b600061221989828a01611ab3565b965050602061222a89828a01611ab3565b955050604061223b89828a01611ae9565b945050606061224c89828a01611ae9565b935050608087013567ffffffffffffffff81111561226d5761226c611a65565b5b61227989828a01611b0d565b92509250509295509295509295565b6000806000604084860312156122a1576122a0611a60565b5b60006122af86828701611ab3565b935050602084013567ffffffffffffffff8111156122d0576122cf611a65565b5b6122dc86828701611b0d565b92509250509250925092565b7f6163636f756e743a206e6f742066726f6d20656e747279706f696e74206f722060008201527f6f776e6572206f722073656c6600000000000000000000000000000000000000602082015250565b6000612344602d836119af565b915061234f826122e8565b604082019050919050565b6000602082019050818103600083015261237381612337565b9050919050565b600080fd5b600080fd5b600080fd5b600080833560016020038436030381126123a6576123a561237a565b5b80840192508235915067ffffffffffffffff8211156123c8576123c761237f565b5b6020830192506001820236038313156123e4576123e3612384565b5b509250929050565b600080fd5b600080fd5b6000808585111561240a576124096123ec565b5b8386111561241b5761241a6123f1565b5b6001850283019150848603905094509492505050565b600082905092915050565b60007fffffffffffffffffffffffffffffffffffffffff00000000000000000000000082169050919050565b600082821b905092915050565b60006124818383612431565b8261248c813561243c565b925060148210156124cc576124c77fffffffffffffffffffffffffffffffffffffffff00000000000000000000000083601403600802612468565b831692505b505092915050565b60007fffffffffffff000000000000000000000000000000000000000000000000000082169050919050565b600061250c8383612431565b8261251781356124d4565b92506006821015612557576125527fffffffffffff000000000000000000000000000000000000000000000000000083600603600802612468565b831692505b505092915050565b6000806040838503121561257657612575611a60565b5b600083013567ffffffffffffffff81111561259457612593611a65565b5b6125a085828601611d79565b925050602083013567ffffffffffffffff8111156125c1576125c0611a65565b5b6125cd85828601611d79565b9150509250929050565b6125e081611c41565b82525050565b600065ffffffffffff82169050919050565b612601816125e6565b82525050565b600060a08201905061261c60008301886125d7565b6126296020830187611f6b565b61263660408301866125f8565b61264360608301856125f8565b61265060808301846125d7565b9695505050505050565b60008115159050919050565b61266f8161265a565b811461267a57600080fd5b50565b60008151905061268c81612666565b92915050565b6000602082840312156126a8576126a7611a60565b5b60006126b68482850161267d565b91505092915050565b600081905092915050565b50565b60006126da6000836126bf565b91506126e5826126ca565b600082019050919050565b60006126fb826126cd565b9150819050919050565b61270e81611eee565b82525050565b60006040820190506127296000830185611f6b565b6127366020830184612705565b9392505050565b60008151905061274c81611ad2565b92915050565b60006020828403121561276857612767611a60565b5b60006127768482850161273d565b91505092915050565b7f4e487b7100000000000000000000000000000000000000000000000000000000600052602160045260246000fd5b6000819050919050565b60006127d36127ce6127c9846127ae565b612042565b611eee565b9050919050565b6127e3816127b8565b82525050565b60006040820190506127fe6000830185611f6b565b61280b60208301846127da565b9392505050565b600081519050919050565b600082825260208201905092915050565b600061283982612812565b612843818561281d565b93506128538185602086016119c0565b61285c816119ea565b840191505092915050565b60006020820190508181036000830152612881818461282e565b905092915050565b7f4e487b7100000000000000000000000000000000000000000000000000000000600052601160045260246000fd5b60006128c382611ac8565b91506128ce83611ac8565b92508282039050818111156128e6576128e5612889565b5b92915050565b600081905092915050565b7f19457468657265756d205369676e6564204d6573736167653a0a333200000000600082015250565b600061292d601c836128ec565b9150612938826128f7565b601c82019050919050565b6000819050919050565b61295e61295982611c41565b612943565b82525050565b600061296f82612920565b915061297b828461294d565b60208201915081905092915050565b60006129996020840184611ab3565b905092915050565b6129aa81611a8a565b82525050565b60006129bf6020840184611ae9565b905092915050565b6129d081611ac8565b82525050565b600080fd5b600080fd5b600080fd5b60008083356001602003843603038112612a0257612a016129e0565b5b83810192508235915060208301925067ffffffffffffffff821115612a2a57612a296129d6565b5b600182023603831315612a4057612a3f6129db565b5b509250929050565b600082825260208201905092915050565b6000612a658385612a48565b9350612a72838584611d28565b612a7b836119ea565b840190509392505050565b60006101608301612a9a600084018461298a565b612aa760008601826129a1565b50612ab560208401846129b0565b612ac260208601826129c7565b50612ad060408401846129e5565b8583036040870152612ae3838284612a59565b92505050612af460608401846129e5565b8583036060870152612b07838284612a59565b92505050612b1860808401846129b0565b612b2560808601826129c7565b50612b3360a08401846129b0565b612b4060a08601826129c7565b50612b4e60c08401846129b0565b612b5b60c08601826129c7565b50612b6960e08401846129b0565b612b7660e08601826129c7565b50612b856101008401846129b0565b612b936101008601826129c7565b50612ba26101208401846129e5565b858303610120870152612bb6838284612a59565b92505050612bc86101408401846129e5565b858303610140870152612bdc838284612a59565b925050508091505092915050565b60006060820190508181036000830152612c048186612a86565b9050612c1360208301856125d7565b612c206040830184611ec4565b949350505050565b7f45434453413a20696e76616c6964207369676e61747572650000000000000000600082015250565b6000612c5e6018836119af565b9150612c6982612c28565b602082019050919050565b60006020820190508181036000830152612c8d81612c51565b9050919050565b7f45434453413a20696e76616c6964207369676e6174757265206c656e67746800600082015250565b6000612cca601f836119af565b9150612cd582612c94565b602082019050919050565b60006020820190508181036000830152612cf981612cbd565b9050919050565b7f45434453413a20696e76616c6964207369676e6174757265202773272076616c60008201527f7565000000000000000000000000000000000000000000000000000000000000602082015250565b6000612d5c6022836119af565b9150612d6782612d00565b604082019050919050565b60006020820190508181036000830152612d8b81612d4f565b9050919050565b7f1901000000000000000000000000000000000000000000000000000000000000600082015250565b6000612dc86002836128ec565b9150612dd382612d92565b600282019050919050565b6000612de982612dbb565b9150612df5828561294d565b602082019150612e05828461294d565b6020820191508190509392505050565b600060ff82169050919050565b612e2b81612e15565b82525050565b6000608082019050612e4660008301876125d7565b612e536020830186612e22565b612e6060408301856125d7565b612e6d60608301846125d7565b95945050505050565b600060a082019050612e8b60008301886125d7565b612e9860208301876125d7565b612ea560408301866125d7565b612eb26060830185611ec4565b612ebf6080830184611f6b565b969550505050505056fea2646970667358221220caeb5e3a855975fbbe673529b31518702232760df68334c7843227a1f03bf5be64736f6c63430008120033",
  "linkReferences": {},
  "deployedLinkReferences": {}
}