{
  "abi": [
    {
      "inputs": [
        {
          "internalType": "bytes",
          "name": "initCode",
          "type": "bytes"
        }
      ],
      "name": "createSender",
      "outputs": [
        {
          "internalType": "address",
          "name": "sender",
          "type": "address"
        }
      ],
      "stateMutability": "nonpayable",
      "type": "function"
    }
  ],
  "bytecode": {
    "object": "0x608060405234801561001057600080fd5b506101f3806100206000396000f3fe608060405234801561001057600080fd5b506004361061002b5760003560e01c8063570e1a3614610030575b600080fd5b61004361003e3660046100ec565b61005f565b6040516001600160a01b03909116815260200160405180910390f35b60008061006f601482858761015e565b61007891610188565b60601c9050600061008c846014818861015e565b8080601f016020809104026020016040519081016040528093929190818152602001838380828437600092018290525084519495509360209350849250905082850182875af190506000519350806100e357600093505b50505092915050565b600080602083850312156100ff57600080fd5b823567ffffffffffffffff8082111561011757600080fd5b818501915085601f83011261012b57600080fd5b81358181111561013a57600080fd5b86602082850101111561014c57600080fd5b60209290920196919550909350505050565b6000808585111561016e57600080fd5b8386111561017b57600080fd5b5050820193919092039150565b6bffffffffffffffffffffffff1981358181169160148510156101b55780818660140360031b1b83161692505b50509291505056fea26469706673582212206343dad82d5fe83d465064d1ec3d2994982f13f73259f137ba7547ce9551680564736f6c63430008130033",
    "linkReferences": {}
  },
  "methodIdentifiers": {
    "createSender(bytes)": "570e1a36"
  },
  "id": 3
}